{
  "_format": "hh-sol-artifact-1",
  "contractName": "Hortulo",
  "sourceName": "contracts/Hortulo.sol",
  "abi": [
    {
      "inputs": [
        {
          "internalType": "contract IToucanPoolToken",
          "name": "_natureCarbonPoolToken",
          "type": "address"
        }
      ],
      "stateMutability": "nonpayable",
      "type": "constructor"
    },
    {
      "anonymous": false,
      "inputs": [
        {
          "indexed": true,
          "internalType": "address",
          "name": "owner",
          "type": "address"
        },
        {
          "indexed": true,
          "internalType": "address",
          "name": "approved",
          "type": "address"
        },
        {
          "indexed": true,
          "internalType": "uint256",
          "name": "tokenId",
          "type": "uint256"
        }
      ],
      "name": "Approval",
      "type": "event"
    },
    {
      "anonymous": false,
      "inputs": [
        {
          "indexed": true,
          "internalType": "address",
          "name": "owner",
          "type": "address"
        },
        {
          "indexed": true,
          "internalType": "address",
          "name": "operator",
          "type": "address"
        },
        {
          "indexed": false,
          "internalType": "bool",
          "name": "approved",
          "type": "bool"
        }
      ],
      "name": "ApprovalForAll",
      "type": "event"
    },
    {
      "anonymous": false,
      "inputs": [
        {
          "indexed": true,
          "internalType": "address",
          "name": "previousOwner",
          "type": "address"
        },
        {
          "indexed": true,
          "internalType": "address",
          "name": "newOwner",
          "type": "address"
        }
      ],
      "name": "OwnershipTransferred",
      "type": "event"
    },
    {
      "anonymous": false,
      "inputs": [
        {
          "indexed": true,
          "internalType": "address",
          "name": "from",
          "type": "address"
        },
        {
          "indexed": true,
          "internalType": "address",
          "name": "to",
          "type": "address"
        },
        {
          "indexed": true,
          "internalType": "uint256",
          "name": "tokenId",
          "type": "uint256"
        }
      ],
      "name": "Transfer",
      "type": "event"
    },
    {
      "inputs": [
        {
          "internalType": "address",
          "name": "to",
          "type": "address"
        },
        {
          "internalType": "uint256",
          "name": "tokenId",
          "type": "uint256"
        }
      ],
      "name": "approve",
      "outputs": [],
      "stateMutability": "nonpayable",
      "type": "function"
    },
    {
      "inputs": [
        {
          "internalType": "address",
          "name": "owner",
          "type": "address"
        }
      ],
      "name": "balanceOf",
      "outputs": [
        {
          "internalType": "uint256",
          "name": "",
          "type": "uint256"
        }
      ],
      "stateMutability": "view",
      "type": "function"
    },
    {
      "inputs": [],
      "name": "baseURI",
      "outputs": [
        {
          "internalType": "string",
          "name": "",
          "type": "string"
        }
      ],
      "stateMutability": "view",
      "type": "function"
    },
    {
      "inputs": [],
      "name": "cost",
      "outputs": [
        {
          "internalType": "uint256",
          "name": "",
          "type": "uint256"
        }
      ],
      "stateMutability": "view",
      "type": "function"
    },
    {
      "inputs": [
        {
          "internalType": "uint256",
          "name": "tokenId",
          "type": "uint256"
        }
      ],
      "name": "getApproved",
      "outputs": [
        {
          "internalType": "address",
          "name": "",
          "type": "address"
        }
      ],
      "stateMutability": "view",
      "type": "function"
    },
    {
      "inputs": [
        {
          "internalType": "uint256",
          "name": "_tokenId",
          "type": "uint256"
        }
      ],
      "name": "getRetiredCarbonAmount",
      "outputs": [
        {
          "internalType": "uint256",
          "name": "",
          "type": "uint256"
        }
      ],
      "stateMutability": "view",
      "type": "function"
    },
    {
      "inputs": [
        {
          "internalType": "address",
          "name": "owner",
          "type": "address"
        },
        {
          "internalType": "address",
          "name": "operator",
          "type": "address"
        }
      ],
      "name": "isApprovedForAll",
      "outputs": [
        {
          "internalType": "bool",
          "name": "",
          "type": "bool"
        }
      ],
      "stateMutability": "view",
      "type": "function"
    },
    {
      "inputs": [],
      "name": "mint",
      "outputs": [],
      "stateMutability": "payable",
      "type": "function"
    },
    {
      "inputs": [],
      "name": "name",
      "outputs": [
        {
          "internalType": "string",
          "name": "",
          "type": "string"
        }
      ],
      "stateMutability": "view",
      "type": "function"
    },
    {
      "inputs": [],
      "name": "natureCarbonPoolToken",
      "outputs": [
        {
          "internalType": "contract IToucanPoolToken",
          "name": "",
          "type": "address"
        }
      ],
      "stateMutability": "view",
      "type": "function"
    },
    {
      "inputs": [
        {
          "internalType": "uint256",
          "name": "_tokenId",
          "type": "uint256"
        },
        {
          "internalType": "uint256",
          "name": "_amount",
          "type": "uint256"
        }
      ],
      "name": "offsetCarbon",
      "outputs": [],
      "stateMutability": "nonpayable",
      "type": "function"
    },
    {
      "inputs": [],
      "name": "owner",
      "outputs": [
        {
          "internalType": "address",
          "name": "",
          "type": "address"
        }
      ],
      "stateMutability": "view",
      "type": "function"
    },
    {
      "inputs": [
        {
          "internalType": "uint256",
          "name": "tokenId",
          "type": "uint256"
        }
      ],
      "name": "ownerOf",
      "outputs": [
        {
          "internalType": "address",
          "name": "",
          "type": "address"
        }
      ],
      "stateMutability": "view",
      "type": "function"
    },
    {
      "inputs": [],
      "name": "renounceOwnership",
      "outputs": [],
      "stateMutability": "nonpayable",
      "type": "function"
    },
    {
      "inputs": [
        {
          "internalType": "uint256",
          "name": "",
          "type": "uint256"
        }
      ],
      "name": "retirements",
      "outputs": [
        {
          "internalType": "uint256",
          "name": "",
          "type": "uint256"
        }
      ],
      "stateMutability": "view",
      "type": "function"
    },
    {
      "inputs": [
        {
          "internalType": "address",
          "name": "from",
          "type": "address"
        },
        {
          "internalType": "address",
          "name": "to",
          "type": "address"
        },
        {
          "internalType": "uint256",
          "name": "tokenId",
          "type": "uint256"
        }
      ],
      "name": "safeTransferFrom",
      "outputs": [],
      "stateMutability": "nonpayable",
      "type": "function"
    },
    {
      "inputs": [
        {
          "internalType": "address",
          "name": "from",
          "type": "address"
        },
        {
          "internalType": "address",
          "name": "to",
          "type": "address"
        },
        {
          "internalType": "uint256",
          "name": "tokenId",
          "type": "uint256"
        },
        {
          "internalType": "bytes",
          "name": "data",
          "type": "bytes"
        }
      ],
      "name": "safeTransferFrom",
      "outputs": [],
      "stateMutability": "nonpayable",
      "type": "function"
    },
    {
      "inputs": [
        {
          "internalType": "address",
          "name": "operator",
          "type": "address"
        },
        {
          "internalType": "bool",
          "name": "approved",
          "type": "bool"
        }
      ],
      "name": "setApprovalForAll",
      "outputs": [],
      "stateMutability": "nonpayable",
      "type": "function"
    },
    {
      "inputs": [
        {
          "internalType": "string",
          "name": "_newBaseURI",
          "type": "string"
        }
      ],
      "name": "setBaseURI",
      "outputs": [],
      "stateMutability": "nonpayable",
      "type": "function"
    },
    {
      "inputs": [
        {
          "internalType": "uint256",
          "name": "_newCost",
          "type": "uint256"
        }
      ],
      "name": "setCost",
      "outputs": [],
      "stateMutability": "nonpayable",
      "type": "function"
    },
    {
      "inputs": [
        {
          "internalType": "bytes4",
          "name": "interfaceId",
          "type": "bytes4"
        }
      ],
      "name": "supportsInterface",
      "outputs": [
        {
          "internalType": "bool",
          "name": "",
          "type": "bool"
        }
      ],
      "stateMutability": "view",
      "type": "function"
    },
    {
      "inputs": [],
      "name": "symbol",
      "outputs": [
        {
          "internalType": "string",
          "name": "",
          "type": "string"
        }
      ],
      "stateMutability": "view",
      "type": "function"
    },
    {
      "inputs": [
        {
          "internalType": "uint256",
          "name": "index",
          "type": "uint256"
        }
      ],
      "name": "tokenByIndex",
      "outputs": [
        {
          "internalType": "uint256",
          "name": "",
          "type": "uint256"
        }
      ],
      "stateMutability": "view",
      "type": "function"
    },
    {
      "inputs": [
        {
          "internalType": "address",
          "name": "owner",
          "type": "address"
        },
        {
          "internalType": "uint256",
          "name": "index",
          "type": "uint256"
        }
      ],
      "name": "tokenOfOwnerByIndex",
      "outputs": [
        {
          "internalType": "uint256",
          "name": "",
          "type": "uint256"
        }
      ],
      "stateMutability": "view",
      "type": "function"
    },
    {
      "inputs": [
        {
          "internalType": "uint256",
          "name": "tokenId",
          "type": "uint256"
        }
      ],
      "name": "tokenURI",
      "outputs": [
        {
          "internalType": "string",
          "name": "",
          "type": "string"
        }
      ],
      "stateMutability": "view",
      "type": "function"
    },
    {
      "inputs": [],
      "name": "totalSupply",
      "outputs": [
        {
          "internalType": "uint256",
          "name": "",
          "type": "uint256"
        }
      ],
      "stateMutability": "view",
      "type": "function"
    },
    {
      "inputs": [
        {
          "internalType": "address",
          "name": "from",
          "type": "address"
        },
        {
          "internalType": "address",
          "name": "to",
          "type": "address"
        },
        {
          "internalType": "uint256",
          "name": "tokenId",
          "type": "uint256"
        }
      ],
      "name": "transferFrom",
      "outputs": [],
      "stateMutability": "nonpayable",
      "type": "function"
    },
    {
      "inputs": [
        {
          "internalType": "address",
          "name": "newOwner",
          "type": "address"
        }
      ],
      "name": "transferOwnership",
      "outputs": [],
      "stateMutability": "nonpayable",
      "type": "function"
    }
  ],
  "bytecode": "0x60806040526000600e553480156200001657600080fd5b5060405162004dde38038062004dde83398181016040528101906200003c91906200038c565b6040518060400160405280600781526020017f486f7274756c6f000000000000000000000000000000000000000000000000008152506040518060400160405280600781526020017f484f5254554c4f000000000000000000000000000000000000000000000000008152508160009081620000b9919062000638565b508060019081620000cb919062000638565b505050620000ee620000e26200016060201b60201c565b6200016860201b60201c565b6200011860405180608001604052806044815260200162004d9a604491396200022e60201b60201c565b80600f60006101000a81548173ffffffffffffffffffffffffffffffffffffffff021916908373ffffffffffffffffffffffffffffffffffffffff16021790555050620007a2565b600033905090565b6000600b60009054906101000a900473ffffffffffffffffffffffffffffffffffffffff16905081600b60006101000a81548173ffffffffffffffffffffffffffffffffffffffff021916908373ffffffffffffffffffffffffffffffffffffffff1602179055508173ffffffffffffffffffffffffffffffffffffffff168173ffffffffffffffffffffffffffffffffffffffff167f8be0079c531659141344cd1fd0a4f28419497f9722a3daafe3b4186f6b6457e060405160405180910390a35050565b6200023e6200025360201b60201c565b80600d90816200024f919062000638565b5050565b620002636200016060201b60201c565b73ffffffffffffffffffffffffffffffffffffffff1662000289620002e460201b60201c565b73ffffffffffffffffffffffffffffffffffffffff1614620002e2576040517f08c379a0000000000000000000000000000000000000000000000000000000008152600401620002d99062000780565b60405180910390fd5b565b6000600b60009054906101000a900473ffffffffffffffffffffffffffffffffffffffff16905090565b600080fd5b600073ffffffffffffffffffffffffffffffffffffffff82169050919050565b6000620003408262000313565b9050919050565b6000620003548262000333565b9050919050565b620003668162000347565b81146200037257600080fd5b50565b60008151905062000386816200035b565b92915050565b600060208284031215620003a557620003a46200030e565b5b6000620003b58482850162000375565b91505092915050565b600081519050919050565b7f4e487b7100000000000000000000000000000000000000000000000000000000600052604160045260246000fd5b7f4e487b7100000000000000000000000000000000000000000000000000000000600052602260045260246000fd5b600060028204905060018216806200044057607f821691505b602082108103620004565762000455620003f8565b5b50919050565b60008190508160005260206000209050919050565b60006020601f8301049050919050565b600082821b905092915050565b600060088302620004c07fffffffffffffffffffffffffffffffffffffffffffffffffffffffffffffffff8262000481565b620004cc868362000481565b95508019841693508086168417925050509392505050565b6000819050919050565b6000819050919050565b600062000519620005136200050d84620004e4565b620004ee565b620004e4565b9050919050565b6000819050919050565b6200053583620004f8565b6200054d620005448262000520565b8484546200048e565b825550505050565b600090565b6200056462000555565b620005718184846200052a565b505050565b5b8181101562000599576200058d6000826200055a565b60018101905062000577565b5050565b601f821115620005e857620005b2816200045c565b620005bd8462000471565b81016020851015620005cd578190505b620005e5620005dc8562000471565b83018262000576565b50505b505050565b600082821c905092915050565b60006200060d60001984600802620005ed565b1980831691505092915050565b6000620006288383620005fa565b9150826002028217905092915050565b6200064382620003be565b67ffffffffffffffff8111156200065f576200065e620003c9565b5b6200066b825462000427565b620006788282856200059d565b600060209050601f831160018114620006b057600084156200069b578287015190505b620006a785826200061a565b86555062000717565b601f198416620006c0866200045c565b60005b82811015620006ea57848901518255600182019150602085019450602081019050620006c3565b868310156200070a578489015162000706601f891682620005fa565b8355505b6001600288020188555050505b505050505050565b600082825260208201905092915050565b7f4f776e61626c653a2063616c6c6572206973206e6f7420746865206f776e6572600082015250565b6000620007686020836200071f565b9150620007758262000730565b602082019050919050565b600060208201905081810360008301526200079b8162000759565b9050919050565b6145e880620007b26000396000f3fe6080604052600436106101b75760003560e01c806361e4678b116100ec57806395d89b411161008a578063c87b56dd11610064578063c87b56dd1461060f578063d78e22ab1461064c578063e985e9c514610677578063f2fde38b146106b4576101b7565b806395d89b4114610592578063a22cb465146105bd578063b88d4fde146105e6576101b7565b806370a08231116100c657806370a08231146104d6578063715018a61461051357806377b4a2231461052a5780638da5cb5b14610567576101b7565b806361e4678b146104315780636352211e1461046e5780636c0360eb146104ab576101b7565b806318160ddd1161015957806342842e0e1161013357806342842e0e1461037957806344a0d68a146103a25780634f6ccce7146103cb57806355f804b314610408576101b7565b806318160ddd146102e857806323b872dd146103135780632f745c591461033c576101b7565b8063095ea7b311610195578063095ea7b314610261578063097b21151461028a5780631249c58b146102b357806313faede6146102bd576101b7565b806301ffc9a7146101bc57806306fdde03146101f9578063081812fc14610224575b600080fd5b3480156101c857600080fd5b506101e360048036038101906101de9190612bbf565b6106dd565b6040516101f09190612c07565b60405180910390f35b34801561020557600080fd5b5061020e6106ef565b60405161021b9190612cb2565b60405180910390f35b34801561023057600080fd5b5061024b60048036038101906102469190612d0a565b610781565b6040516102589190612d78565b60405180910390f35b34801561026d57600080fd5b5061028860048036038101906102839190612dbf565b6107c7565b005b34801561029657600080fd5b506102b160048036038101906102ac9190612dff565b6108de565b005b6102bb610d7f565b005b3480156102c957600080fd5b506102d2610de9565b6040516102df9190612e4e565b60405180910390f35b3480156102f457600080fd5b506102fd610def565b60405161030a9190612e4e565b60405180910390f35b34801561031f57600080fd5b5061033a60048036038101906103359190612e69565b610dfc565b005b34801561034857600080fd5b50610363600480360381019061035e9190612dbf565b610e5c565b6040516103709190612e4e565b60405180910390f35b34801561038557600080fd5b506103a0600480360381019061039b9190612e69565b610f01565b005b3480156103ae57600080fd5b506103c960048036038101906103c49190612d0a565b610f21565b005b3480156103d757600080fd5b506103f260048036038101906103ed9190612d0a565b610f33565b6040516103ff9190612e4e565b60405180910390f35b34801561041457600080fd5b5061042f600480360381019061042a9190612ff1565b610fa4565b005b34801561043d57600080fd5b5061045860048036038101906104539190612d0a565b610fbf565b6040516104659190612e4e565b60405180910390f35b34801561047a57600080fd5b5061049560048036038101906104909190612d0a565b610fd7565b6040516104a29190612d78565b60405180910390f35b3480156104b757600080fd5b506104c061105d565b6040516104cd9190612cb2565b60405180910390f35b3480156104e257600080fd5b506104fd60048036038101906104f8919061303a565b6110eb565b60405161050a9190612e4e565b60405180910390f35b34801561051f57600080fd5b506105286111a2565b005b34801561053657600080fd5b50610551600480360381019061054c9190612d0a565b6111b6565b60405161055e9190612e4e565b60405180910390f35b34801561057357600080fd5b5061057c6111d3565b6040516105899190612d78565b60405180910390f35b34801561059e57600080fd5b506105a76111fd565b6040516105b49190612cb2565b60405180910390f35b3480156105c957600080fd5b506105e460048036038101906105df9190613093565b61128f565b005b3480156105f257600080fd5b5061060d60048036038101906106089190613174565b6112a5565b005b34801561061b57600080fd5b5061063660048036038101906106319190612d0a565b611307565b6040516106439190612cb2565b60405180910390f35b34801561065857600080fd5b50610661611319565b60405161066e9190613256565b60405180910390f35b34801561068357600080fd5b5061069e60048036038101906106999190613271565b61133f565b6040516106ab9190612c07565b60405180910390f35b3480156106c057600080fd5b506106db60048036038101906106d6919061303a565b6113d3565b005b60006106e882611456565b9050919050565b6060600080546106fe906132e0565b80601f016020809104026020016040519081016040528092919081815260200182805461072a906132e0565b80156107775780601f1061074c57610100808354040283529160200191610777565b820191906000526020600020905b81548152906001019060200180831161075a57829003601f168201915b5050505050905090565b600061078c826114d0565b6004600083815260200190815260200160002060009054906101000a900473ffffffffffffffffffffffffffffffffffffffff169050919050565b60006107d282610fd7565b90508073ffffffffffffffffffffffffffffffffffffffff168373ffffffffffffffffffffffffffffffffffffffff1603610842576040517f08c379a000000000000000000000000000000000000000000000000000000000815260040161083990613383565b60405180910390fd5b8073ffffffffffffffffffffffffffffffffffffffff1661086161151b565b73ffffffffffffffffffffffffffffffffffffffff161480610890575061088f8161088a61151b565b61133f565b5b6108cf576040517f08c379a00000000000000000000000000000000000000000000000000000000081526004016108c690613415565b60405180910390fd5b6108d98383611523565b505050565b3373ffffffffffffffffffffffffffffffffffffffff163073ffffffffffffffffffffffffffffffffffffffff16636352211e846040518263ffffffff1660e01b815260040161092e9190612e4e565b602060405180830381865afa15801561094b573d6000803e3d6000fd5b505050506040513d601f19601f8201168201806040525081019061096f919061344a565b73ffffffffffffffffffffffffffffffffffffffff16146109c5576040517f08c379a00000000000000000000000000000000000000000000000000000000081526004016109bc906134c3565b60405180910390fd5b6109ce826115dc565b610a0d576040517f08c379a0000000000000000000000000000000000000000000000000000000008152600401610a049061352f565b60405180910390fd5b80600f60009054906101000a900473ffffffffffffffffffffffffffffffffffffffff1673ffffffffffffffffffffffffffffffffffffffff166370a08231336040518263ffffffff1660e01b8152600401610a699190612d78565b602060405180830381865afa158015610a86573d6000803e3d6000fd5b505050506040513d601f19601f82011682018060405250810190610aaa9190613564565b1015610aeb576040517f08c379a0000000000000000000000000000000000000000000000000000000008152600401610ae2906135dd565b60405180910390fd5b600f60009054906101000a900473ffffffffffffffffffffffffffffffffffffffff1673ffffffffffffffffffffffffffffffffffffffff166323b872dd3330846040518463ffffffff1660e01b8152600401610b4a939291906135fd565b6020604051808303816000875af1158015610b69573d6000803e3d6000fd5b505050506040513d601f19601f82011682018060405250810190610b8d9190613649565b610bcc576040517f08c379a0000000000000000000000000000000000000000000000000000000008152600401610bc3906136c2565b60405180910390fd5b600080600f60009054906101000a900473ffffffffffffffffffffffffffffffffffffffff1673ffffffffffffffffffffffffffffffffffffffff16634c02cad1846040518263ffffffff1660e01b8152600401610c2a9190612e4e565b6000604051808303816000875af1158015610c49573d6000803e3d6000fd5b505050506040513d6000823e3d601f19601f82011682018060405250810190610c72919061386d565b9150915060005b8251811015610d7857828181518110610c9557610c946138e5565b5b602002602001015173ffffffffffffffffffffffffffffffffffffffff16633790cf57838381518110610ccb57610cca6138e5565b5b60200260200101516040518263ffffffff1660e01b8152600401610cef9190612e4e565b600060405180830381600087803b158015610d0957600080fd5b505af1158015610d1d573d6000803e3d6000fd5b50505050818181518110610d3457610d336138e5565b5b6020026020010151601060008781526020019081526020016000206000828254610d5e9190613943565b925050819055508080610d7090613977565b915050610c79565b5050505050565b600e54341015610dc4576040517f08c379a0000000000000000000000000000000000000000000000000000000008152600401610dbb90613a0b565b60405180910390fd5b6000610dd0600c61161d565b9050610ddc600c61162b565b610de63382611641565b50565b600e5481565b6000600880549050905090565b610e0d610e0761151b565b8261165f565b610e4c576040517f08c379a0000000000000000000000000000000000000000000000000000000008152600401610e4390613a9d565b60405180910390fd5b610e578383836116f4565b505050565b6000610e67836110eb565b8210610ea8576040517f08c379a0000000000000000000000000000000000000000000000000000000008152600401610e9f90613b2f565b60405180910390fd5b600660008473ffffffffffffffffffffffffffffffffffffffff1673ffffffffffffffffffffffffffffffffffffffff168152602001908152602001600020600083815260200190815260200160002054905092915050565b610f1c838383604051806020016040528060008152506112a5565b505050565b610f296119ed565b80600e8190555050565b6000610f3d610def565b8210610f7e576040517f08c379a0000000000000000000000000000000000000000000000000000000008152600401610f7590613bc1565b60405180910390fd5b60088281548110610f9257610f916138e5565b5b90600052602060002001549050919050565b610fac6119ed565b80600d9081610fbb9190613d83565b5050565b60106020528060005260406000206000915090505481565b600080610fe383611a6b565b9050600073ffffffffffffffffffffffffffffffffffffffff168173ffffffffffffffffffffffffffffffffffffffff1603611054576040517f08c379a000000000000000000000000000000000000000000000000000000000815260040161104b90613ea1565b60405180910390fd5b80915050919050565b600d805461106a906132e0565b80601f0160208091040260200160405190810160405280929190818152602001828054611096906132e0565b80156110e35780601f106110b8576101008083540402835291602001916110e3565b820191906000526020600020905b8154815290600101906020018083116110c657829003601f168201915b505050505081565b60008073ffffffffffffffffffffffffffffffffffffffff168273ffffffffffffffffffffffffffffffffffffffff160361115b576040517f08c379a000000000000000000000000000000000000000000000000000000000815260040161115290613f33565b60405180910390fd5b600360008373ffffffffffffffffffffffffffffffffffffffff1673ffffffffffffffffffffffffffffffffffffffff168152602001908152602001600020549050919050565b6111aa6119ed565b6111b46000611aa8565b565b600060106000838152602001908152602001600020549050919050565b6000600b60009054906101000a900473ffffffffffffffffffffffffffffffffffffffff16905090565b60606001805461120c906132e0565b80601f0160208091040260200160405190810160405280929190818152602001828054611238906132e0565b80156112855780601f1061125a57610100808354040283529160200191611285565b820191906000526020600020905b81548152906001019060200180831161126857829003601f168201915b5050505050905090565b6112a161129a61151b565b8383611b6e565b5050565b6112b66112b061151b565b8361165f565b6112f5576040517f08c379a00000000000000000000000000000000000000000000000000000000081526004016112ec90613a9d565b60405180910390fd5b61130184848484611cda565b50505050565b606061131282611d36565b9050919050565b600f60009054906101000a900473ffffffffffffffffffffffffffffffffffffffff1681565b6000600560008473ffffffffffffffffffffffffffffffffffffffff1673ffffffffffffffffffffffffffffffffffffffff16815260200190815260200160002060008373ffffffffffffffffffffffffffffffffffffffff1673ffffffffffffffffffffffffffffffffffffffff16815260200190815260200160002060009054906101000a900460ff16905092915050565b6113db6119ed565b600073ffffffffffffffffffffffffffffffffffffffff168173ffffffffffffffffffffffffffffffffffffffff160361144a576040517f08c379a000000000000000000000000000000000000000000000000000000000815260040161144190613fc5565b60405180910390fd5b61145381611aa8565b50565b60007f780e9d63000000000000000000000000000000000000000000000000000000007bffffffffffffffffffffffffffffffffffffffffffffffffffffffff1916827bffffffffffffffffffffffffffffffffffffffffffffffffffffffff191614806114c957506114c882611e48565b5b9050919050565b6114d9816115dc565b611518576040517f08c379a000000000000000000000000000000000000000000000000000000000815260040161150f90613ea1565b60405180910390fd5b50565b600033905090565b816004600083815260200190815260200160002060006101000a81548173ffffffffffffffffffffffffffffffffffffffff021916908373ffffffffffffffffffffffffffffffffffffffff160217905550808273ffffffffffffffffffffffffffffffffffffffff1661159683610fd7565b73ffffffffffffffffffffffffffffffffffffffff167f8c5be1e5ebec7d5bd14f71427d1e84f3dd0314c0f7b2291e5b200ac8c7c3b92560405160405180910390a45050565b60008073ffffffffffffffffffffffffffffffffffffffff166115fe83611a6b565b73ffffffffffffffffffffffffffffffffffffffff1614159050919050565b600081600001549050919050565b6001816000016000828254019250508190555050565b61165b828260405180602001604052806000815250611f2a565b5050565b60008061166b83610fd7565b90508073ffffffffffffffffffffffffffffffffffffffff168473ffffffffffffffffffffffffffffffffffffffff1614806116ad57506116ac818561133f565b5b806116eb57508373ffffffffffffffffffffffffffffffffffffffff166116d384610781565b73ffffffffffffffffffffffffffffffffffffffff16145b91505092915050565b8273ffffffffffffffffffffffffffffffffffffffff1661171482610fd7565b73ffffffffffffffffffffffffffffffffffffffff161461176a576040517f08c379a000000000000000000000000000000000000000000000000000000000815260040161176190614057565b60405180910390fd5b600073ffffffffffffffffffffffffffffffffffffffff168273ffffffffffffffffffffffffffffffffffffffff16036117d9576040517f08c379a00000000000000000000000000000000000000000000000000000000081526004016117d0906140e9565b60405180910390fd5b6117e68383836001611f85565b8273ffffffffffffffffffffffffffffffffffffffff1661180682610fd7565b73ffffffffffffffffffffffffffffffffffffffff161461185c576040517f08c379a000000000000000000000000000000000000000000000000000000000815260040161185390614057565b60405180910390fd5b6004600082815260200190815260200160002060006101000a81549073ffffffffffffffffffffffffffffffffffffffff02191690556001600360008573ffffffffffffffffffffffffffffffffffffffff1673ffffffffffffffffffffffffffffffffffffffff168152602001908152602001600020600082825403925050819055506001600360008473ffffffffffffffffffffffffffffffffffffffff1673ffffffffffffffffffffffffffffffffffffffff16815260200190815260200160002060008282540192505081905550816002600083815260200190815260200160002060006101000a81548173ffffffffffffffffffffffffffffffffffffffff021916908373ffffffffffffffffffffffffffffffffffffffff160217905550808273ffffffffffffffffffffffffffffffffffffffff168473ffffffffffffffffffffffffffffffffffffffff167fddf252ad1be2c89b69c2b068fc378daa952ba7f163c4a11628f55a4df523b3ef60405160405180910390a46119e88383836001611f97565b505050565b6119f561151b565b73ffffffffffffffffffffffffffffffffffffffff16611a136111d3565b73ffffffffffffffffffffffffffffffffffffffff1614611a69576040517f08c379a0000000000000000000000000000000000000000000000000000000008152600401611a6090614155565b60405180910390fd5b565b60006002600083815260200190815260200160002060009054906101000a900473ffffffffffffffffffffffffffffffffffffffff169050919050565b6000600b60009054906101000a900473ffffffffffffffffffffffffffffffffffffffff16905081600b60006101000a81548173ffffffffffffffffffffffffffffffffffffffff021916908373ffffffffffffffffffffffffffffffffffffffff1602179055508173ffffffffffffffffffffffffffffffffffffffff168173ffffffffffffffffffffffffffffffffffffffff167f8be0079c531659141344cd1fd0a4f28419497f9722a3daafe3b4186f6b6457e060405160405180910390a35050565b8173ffffffffffffffffffffffffffffffffffffffff168373ffffffffffffffffffffffffffffffffffffffff1603611bdc576040517f08c379a0000000000000000000000000000000000000000000000000000000008152600401611bd3906141c1565b60405180910390fd5b80600560008573ffffffffffffffffffffffffffffffffffffffff1673ffffffffffffffffffffffffffffffffffffffff16815260200190815260200160002060008473ffffffffffffffffffffffffffffffffffffffff1673ffffffffffffffffffffffffffffffffffffffff16815260200190815260200160002060006101000a81548160ff0219169083151502179055508173ffffffffffffffffffffffffffffffffffffffff168373ffffffffffffffffffffffffffffffffffffffff167f17307eab39ab6107e8899845ad3d59bd9653f200f220920489ca2b5937696c3183604051611ccd9190612c07565b60405180910390a3505050565b611ce58484846116f4565b611cf184848484611f9d565b611d30576040517f08c379a0000000000000000000000000000000000000000000000000000000008152600401611d2790614253565b60405180910390fd5b50505050565b6060611d41826114d0565b6000600a60008481526020019081526020016000208054611d61906132e0565b80601f0160208091040260200160405190810160405280929190818152602001828054611d8d906132e0565b8015611dda5780601f10611daf57610100808354040283529160200191611dda565b820191906000526020600020905b815481529060010190602001808311611dbd57829003601f168201915b505050505090506000611deb612124565b90506000815103611e00578192505050611e43565b600082511115611e35578082604051602001611e1d9291906142af565b60405160208183030381529060405292505050611e43565b611e3e846121b6565b925050505b919050565b60007f80ac58cd000000000000000000000000000000000000000000000000000000007bffffffffffffffffffffffffffffffffffffffffffffffffffffffff1916827bffffffffffffffffffffffffffffffffffffffffffffffffffffffff19161480611f1357507f5b5e139f000000000000000000000000000000000000000000000000000000007bffffffffffffffffffffffffffffffffffffffffffffffffffffffff1916827bffffffffffffffffffffffffffffffffffffffffffffffffffffffff1916145b80611f235750611f228261221e565b5b9050919050565b611f348383612288565b611f416000848484611f9d565b611f80576040517f08c379a0000000000000000000000000000000000000000000000000000000008152600401611f7790614253565b60405180910390fd5b505050565b611f91848484846124a5565b50505050565b50505050565b6000611fbe8473ffffffffffffffffffffffffffffffffffffffff16612603565b15612117578373ffffffffffffffffffffffffffffffffffffffff1663150b7a02611fe761151b565b8786866040518563ffffffff1660e01b81526004016120099493929190614328565b6020604051808303816000875af192505050801561204557506040513d601f19601f820116820180604052508101906120429190614389565b60015b6120c7573d8060008114612075576040519150601f19603f3d011682016040523d82523d6000602084013e61207a565b606091505b5060008151036120bf576040517f08c379a00000000000000000000000000000000000000000000000000000000081526004016120b690614253565b60405180910390fd5b805181602001fd5b63150b7a0260e01b7bffffffffffffffffffffffffffffffffffffffffffffffffffffffff1916817bffffffffffffffffffffffffffffffffffffffffffffffffffffffff19161491505061211c565b600190505b949350505050565b6060600d8054612133906132e0565b80601f016020809104026020016040519081016040528092919081815260200182805461215f906132e0565b80156121ac5780601f10612181576101008083540402835291602001916121ac565b820191906000526020600020905b81548152906001019060200180831161218f57829003601f168201915b5050505050905090565b60606121c1826114d0565b60006121cb612124565b905060008151116121eb5760405180602001604052806000815250612216565b806121f584612626565b6040516020016122069291906142af565b6040516020818303038152906040525b915050919050565b60007f01ffc9a7000000000000000000000000000000000000000000000000000000007bffffffffffffffffffffffffffffffffffffffffffffffffffffffff1916827bffffffffffffffffffffffffffffffffffffffffffffffffffffffff1916149050919050565b600073ffffffffffffffffffffffffffffffffffffffff168273ffffffffffffffffffffffffffffffffffffffff16036122f7576040517f08c379a00000000000000000000000000000000000000000000000000000000081526004016122ee90614402565b60405180910390fd5b612300816115dc565b15612340576040517f08c379a00000000000000000000000000000000000000000000000000000000081526004016123379061446e565b60405180910390fd5b61234e600083836001611f85565b612357816115dc565b15612397576040517f08c379a000000000000000000000000000000000000000000000000000000000815260040161238e9061446e565b60405180910390fd5b6001600360008473ffffffffffffffffffffffffffffffffffffffff1673ffffffffffffffffffffffffffffffffffffffff16815260200190815260200160002060008282540192505081905550816002600083815260200190815260200160002060006101000a81548173ffffffffffffffffffffffffffffffffffffffff021916908373ffffffffffffffffffffffffffffffffffffffff160217905550808273ffffffffffffffffffffffffffffffffffffffff16600073ffffffffffffffffffffffffffffffffffffffff167fddf252ad1be2c89b69c2b068fc378daa952ba7f163c4a11628f55a4df523b3ef60405160405180910390a46124a1600083836001611f97565b5050565b6124b1848484846126f4565b60018111156124f5576040517f08c379a00000000000000000000000000000000000000000000000000000000081526004016124ec90614500565b60405180910390fd5b6000829050600073ffffffffffffffffffffffffffffffffffffffff168573ffffffffffffffffffffffffffffffffffffffff160361253c57612537816126fa565b61257b565b8373ffffffffffffffffffffffffffffffffffffffff168573ffffffffffffffffffffffffffffffffffffffff161461257a576125798582612743565b5b5b600073ffffffffffffffffffffffffffffffffffffffff168473ffffffffffffffffffffffffffffffffffffffff16036125bd576125b8816128b0565b6125fc565b8473ffffffffffffffffffffffffffffffffffffffff168473ffffffffffffffffffffffffffffffffffffffff16146125fb576125fa8482612981565b5b5b5050505050565b6000808273ffffffffffffffffffffffffffffffffffffffff163b119050919050565b60606000600161263584612a00565b01905060008167ffffffffffffffff81111561265457612653612ec6565b5b6040519080825280601f01601f1916602001820160405280156126865781602001600182028036833780820191505090505b509050600082602001820190505b6001156126e9578080600190039150507f3031323334353637383961626364656600000000000000000000000000000000600a86061a8153600a85816126dd576126dc614520565b5b04945060008503612694575b819350505050919050565b50505050565b6008805490506009600083815260200190815260200160002081905550600881908060018154018082558091505060019003906000526020600020016000909190919091505550565b60006001612750846110eb565b61275a919061454f565b905060006007600084815260200190815260200160002054905081811461283f576000600660008673ffffffffffffffffffffffffffffffffffffffff1673ffffffffffffffffffffffffffffffffffffffff168152602001908152602001600020600084815260200190815260200160002054905080600660008773ffffffffffffffffffffffffffffffffffffffff1673ffffffffffffffffffffffffffffffffffffffff168152602001908152602001600020600084815260200190815260200160002081905550816007600083815260200190815260200160002081905550505b6007600084815260200190815260200160002060009055600660008573ffffffffffffffffffffffffffffffffffffffff1673ffffffffffffffffffffffffffffffffffffffff16815260200190815260200160002060008381526020019081526020016000206000905550505050565b600060016008805490506128c4919061454f565b90506000600960008481526020019081526020016000205490506000600883815481106128f4576128f36138e5565b5b906000526020600020015490508060088381548110612916576129156138e5565b5b90600052602060002001819055508160096000838152602001908152602001600020819055506009600085815260200190815260200160002060009055600880548061296557612964614583565b5b6001900381819060005260206000200160009055905550505050565b600061298c836110eb565b905081600660008573ffffffffffffffffffffffffffffffffffffffff1673ffffffffffffffffffffffffffffffffffffffff168152602001908152602001600020600083815260200190815260200160002081905550806007600084815260200190815260200160002081905550505050565b600080600090507a184f03e93ff9f4daa797ed6e38ed64bf6a1f0100000000000000008310612a5e577a184f03e93ff9f4daa797ed6e38ed64bf6a1f0100000000000000008381612a5457612a53614520565b5b0492506040810190505b6d04ee2d6d415b85acef81000000008310612a9b576d04ee2d6d415b85acef81000000008381612a9157612a90614520565b5b0492506020810190505b662386f26fc100008310612aca57662386f26fc100008381612ac057612abf614520565b5b0492506010810190505b6305f5e1008310612af3576305f5e1008381612ae957612ae8614520565b5b0492506008810190505b6127108310612b18576127108381612b0e57612b0d614520565b5b0492506004810190505b60648310612b3b5760648381612b3157612b30614520565b5b0492506002810190505b600a8310612b4a576001810190505b80915050919050565b6000604051905090565b600080fd5b600080fd5b60007fffffffff0000000000000000000000000000000000000000000000000000000082169050919050565b612b9c81612b67565b8114612ba757600080fd5b50565b600081359050612bb981612b93565b92915050565b600060208284031215612bd557612bd4612b5d565b5b6000612be384828501612baa565b91505092915050565b60008115159050919050565b612c0181612bec565b82525050565b6000602082019050612c1c6000830184612bf8565b92915050565b600081519050919050565b600082825260208201905092915050565b60005b83811015612c5c578082015181840152602081019050612c41565b60008484015250505050565b6000601f19601f8301169050919050565b6000612c8482612c22565b612c8e8185612c2d565b9350612c9e818560208601612c3e565b612ca781612c68565b840191505092915050565b60006020820190508181036000830152612ccc8184612c79565b905092915050565b6000819050919050565b612ce781612cd4565b8114612cf257600080fd5b50565b600081359050612d0481612cde565b92915050565b600060208284031215612d2057612d1f612b5d565b5b6000612d2e84828501612cf5565b91505092915050565b600073ffffffffffffffffffffffffffffffffffffffff82169050919050565b6000612d6282612d37565b9050919050565b612d7281612d57565b82525050565b6000602082019050612d8d6000830184612d69565b92915050565b612d9c81612d57565b8114612da757600080fd5b50565b600081359050612db981612d93565b92915050565b60008060408385031215612dd657612dd5612b5d565b5b6000612de485828601612daa565b9250506020612df585828601612cf5565b9150509250929050565b60008060408385031215612e1657612e15612b5d565b5b6000612e2485828601612cf5565b9250506020612e3585828601612cf5565b9150509250929050565b612e4881612cd4565b82525050565b6000602082019050612e636000830184612e3f565b92915050565b600080600060608486031215612e8257612e81612b5d565b5b6000612e9086828701612daa565b9350506020612ea186828701612daa565b9250506040612eb286828701612cf5565b9150509250925092565b600080fd5b600080fd5b7f4e487b7100000000000000000000000000000000000000000000000000000000600052604160045260246000fd5b612efe82612c68565b810181811067ffffffffffffffff82111715612f1d57612f1c612ec6565b5b80604052505050565b6000612f30612b53565b9050612f3c8282612ef5565b919050565b600067ffffffffffffffff821115612f5c57612f5b612ec6565b5b612f6582612c68565b9050602081019050919050565b82818337600083830152505050565b6000612f94612f8f84612f41565b612f26565b905082815260208101848484011115612fb057612faf612ec1565b5b612fbb848285612f72565b509392505050565b600082601f830112612fd857612fd7612ebc565b5b8135612fe8848260208601612f81565b91505092915050565b60006020828403121561300757613006612b5d565b5b600082013567ffffffffffffffff81111561302557613024612b62565b5b61303184828501612fc3565b91505092915050565b6000602082840312156130505761304f612b5d565b5b600061305e84828501612daa565b91505092915050565b61307081612bec565b811461307b57600080fd5b50565b60008135905061308d81613067565b92915050565b600080604083850312156130aa576130a9612b5d565b5b60006130b885828601612daa565b92505060206130c98582860161307e565b9150509250929050565b600067ffffffffffffffff8211156130ee576130ed612ec6565b5b6130f782612c68565b9050602081019050919050565b6000613117613112846130d3565b612f26565b90508281526020810184848401111561313357613132612ec1565b5b61313e848285612f72565b509392505050565b600082601f83011261315b5761315a612ebc565b5b813561316b848260208601613104565b91505092915050565b6000806000806080858703121561318e5761318d612b5d565b5b600061319c87828801612daa565b94505060206131ad87828801612daa565b93505060406131be87828801612cf5565b925050606085013567ffffffffffffffff8111156131df576131de612b62565b5b6131eb87828801613146565b91505092959194509250565b6000819050919050565b600061321c61321761321284612d37565b6131f7565b612d37565b9050919050565b600061322e82613201565b9050919050565b600061324082613223565b9050919050565b61325081613235565b82525050565b600060208201905061326b6000830184613247565b92915050565b6000806040838503121561328857613287612b5d565b5b600061329685828601612daa565b92505060206132a785828601612daa565b9150509250929050565b7f4e487b7100000000000000000000000000000000000000000000000000000000600052602260045260246000fd5b600060028204905060018216806132f857607f821691505b60208210810361330b5761330a6132b1565b5b50919050565b7f4552433732313a20617070726f76616c20746f2063757272656e74206f776e6560008201527f7200000000000000000000000000000000000000000000000000000000000000602082015250565b600061336d602183612c2d565b915061337882613311565b604082019050919050565b6000602082019050818103600083015261339c81613360565b9050919050565b7f4552433732313a20617070726f76652063616c6c6572206973206e6f7420746f60008201527f6b656e206f776e6572206f7220617070726f76656420666f7220616c6c000000602082015250565b60006133ff603d83612c2d565b915061340a826133a3565b604082019050919050565b6000602082019050818103600083015261342e816133f2565b9050919050565b60008151905061344481612d93565b92915050565b6000602082840312156134605761345f612b5d565b5b600061346e84828501613435565b91505092915050565b7f596f7520646f6e2774206f776e207468697320746f6b656e0000000000000000600082015250565b60006134ad601883612c2d565b91506134b882613477565b602082019050919050565b600060208201905081810360008301526134dc816134a0565b9050919050565b7f546f6b656e496420646f6573206e6f7420657869737400000000000000000000600082015250565b6000613519601683612c2d565b9150613524826134e3565b602082019050919050565b600060208201905081810360008301526135488161350c565b9050919050565b60008151905061355e81612cde565b92915050565b60006020828403121561357a57613579612b5d565b5b60006135888482850161354f565b91505092915050565b7f696e73756666696369656e742062616c616e6365206f66204e43540000000000600082015250565b60006135c7601b83612c2d565b91506135d282613591565b602082019050919050565b600060208201905081810360008301526135f6816135ba565b9050919050565b60006060820190506136126000830186612d69565b61361f6020830185612d69565b61362c6040830184612e3f565b949350505050565b60008151905061364381613067565b92915050565b60006020828403121561365f5761365e612b5d565b5b600061366d84828501613634565b91505092915050565b7f7472616e73666572206661696c65640000000000000000000000000000000000600082015250565b60006136ac600f83612c2d565b91506136b782613676565b602082019050919050565b600060208201905081810360008301526136db8161369f565b9050919050565b600067ffffffffffffffff8211156136fd576136fc612ec6565b5b602082029050602081019050919050565b600080fd5b6000613726613721846136e2565b612f26565b905080838252602082019050602084028301858111156137495761374861370e565b5b835b81811015613772578061375e8882613435565b84526020840193505060208101905061374b565b5050509392505050565b600082601f83011261379157613790612ebc565b5b81516137a1848260208601613713565b91505092915050565b600067ffffffffffffffff8211156137c5576137c4612ec6565b5b602082029050602081019050919050565b60006137e96137e4846137aa565b612f26565b9050808382526020820190506020840283018581111561380c5761380b61370e565b5b835b818110156138355780613821888261354f565b84526020840193505060208101905061380e565b5050509392505050565b600082601f83011261385457613853612ebc565b5b81516138648482602086016137d6565b91505092915050565b6000806040838503121561388457613883612b5d565b5b600083015167ffffffffffffffff8111156138a2576138a1612b62565b5b6138ae8582860161377c565b925050602083015167ffffffffffffffff8111156138cf576138ce612b62565b5b6138db8582860161383f565b9150509250929050565b7f4e487b7100000000000000000000000000000000000000000000000000000000600052603260045260246000fd5b7f4e487b7100000000000000000000000000000000000000000000000000000000600052601160045260246000fd5b600061394e82612cd4565b915061395983612cd4565b925082820190508082111561397157613970613914565b5b92915050565b600061398282612cd4565b91507fffffffffffffffffffffffffffffffffffffffffffffffffffffffffffffffff82036139b4576139b3613914565b5b600182019050919050565b7f496e73756666696369656e742062616c616e6365000000000000000000000000600082015250565b60006139f5601483612c2d565b9150613a00826139bf565b602082019050919050565b60006020820190508181036000830152613a24816139e8565b9050919050565b7f4552433732313a2063616c6c6572206973206e6f7420746f6b656e206f776e6560008201527f72206f7220617070726f76656400000000000000000000000000000000000000602082015250565b6000613a87602d83612c2d565b9150613a9282613a2b565b604082019050919050565b60006020820190508181036000830152613ab681613a7a565b9050919050565b7f455243373231456e756d657261626c653a206f776e657220696e646578206f7560008201527f74206f6620626f756e6473000000000000000000000000000000000000000000602082015250565b6000613b19602b83612c2d565b9150613b2482613abd565b604082019050919050565b60006020820190508181036000830152613b4881613b0c565b9050919050565b7f455243373231456e756d657261626c653a20676c6f62616c20696e646578206f60008201527f7574206f6620626f756e64730000000000000000000000000000000000000000602082015250565b6000613bab602c83612c2d565b9150613bb682613b4f565b604082019050919050565b60006020820190508181036000830152613bda81613b9e565b9050919050565b60008190508160005260206000209050919050565b60006020601f8301049050919050565b600082821b905092915050565b600060088302613c437fffffffffffffffffffffffffffffffffffffffffffffffffffffffffffffffff82613c06565b613c4d8683613c06565b95508019841693508086168417925050509392505050565b6000613c80613c7b613c7684612cd4565b6131f7565b612cd4565b9050919050565b6000819050919050565b613c9a83613c65565b613cae613ca682613c87565b848454613c13565b825550505050565b600090565b613cc3613cb6565b613cce818484613c91565b505050565b5b81811015613cf257613ce7600082613cbb565b600181019050613cd4565b5050565b601f821115613d3757613d0881613be1565b613d1184613bf6565b81016020851015613d20578190505b613d34613d2c85613bf6565b830182613cd3565b50505b505050565b600082821c905092915050565b6000613d5a60001984600802613d3c565b1980831691505092915050565b6000613d738383613d49565b9150826002028217905092915050565b613d8c82612c22565b67ffffffffffffffff811115613da557613da4612ec6565b5b613daf82546132e0565b613dba828285613cf6565b600060209050601f831160018114613ded5760008415613ddb578287015190505b613de58582613d67565b865550613e4d565b601f198416613dfb86613be1565b60005b82811015613e2357848901518255600182019150602085019450602081019050613dfe565b86831015613e405784890151613e3c601f891682613d49565b8355505b6001600288020188555050505b505050505050565b7f4552433732313a20696e76616c696420746f6b656e2049440000000000000000600082015250565b6000613e8b601883612c2d565b9150613e9682613e55565b602082019050919050565b60006020820190508181036000830152613eba81613e7e565b9050919050565b7f4552433732313a2061646472657373207a65726f206973206e6f74206120766160008201527f6c6964206f776e65720000000000000000000000000000000000000000000000602082015250565b6000613f1d602983612c2d565b9150613f2882613ec1565b604082019050919050565b60006020820190508181036000830152613f4c81613f10565b9050919050565b7f4f776e61626c653a206e6577206f776e657220697320746865207a65726f206160008201527f6464726573730000000000000000000000000000000000000000000000000000602082015250565b6000613faf602683612c2d565b9150613fba82613f53565b604082019050919050565b60006020820190508181036000830152613fde81613fa2565b9050919050565b7f4552433732313a207472616e736665722066726f6d20696e636f72726563742060008201527f6f776e6572000000000000000000000000000000000000000000000000000000602082015250565b6000614041602583612c2d565b915061404c82613fe5565b604082019050919050565b6000602082019050818103600083015261407081614034565b9050919050565b7f4552433732313a207472616e7366657220746f20746865207a65726f2061646460008201527f7265737300000000000000000000000000000000000000000000000000000000602082015250565b60006140d3602483612c2d565b91506140de82614077565b604082019050919050565b60006020820190508181036000830152614102816140c6565b9050919050565b7f4f776e61626c653a2063616c6c6572206973206e6f7420746865206f776e6572600082015250565b600061413f602083612c2d565b915061414a82614109565b602082019050919050565b6000602082019050818103600083015261416e81614132565b9050919050565b7f4552433732313a20617070726f766520746f2063616c6c657200000000000000600082015250565b60006141ab601983612c2d565b91506141b682614175565b602082019050919050565b600060208201905081810360008301526141da8161419e565b9050919050565b7f4552433732313a207472616e7366657220746f206e6f6e20455243373231526560008201527f63656976657220696d706c656d656e7465720000000000000000000000000000602082015250565b600061423d603283612c2d565b9150614248826141e1565b604082019050919050565b6000602082019050818103600083015261426c81614230565b9050919050565b600081905092915050565b600061428982612c22565b6142938185614273565b93506142a3818560208601612c3e565b80840191505092915050565b60006142bb828561427e565b91506142c7828461427e565b91508190509392505050565b600081519050919050565b600082825260208201905092915050565b60006142fa826142d3565b61430481856142de565b9350614314818560208601612c3e565b61431d81612c68565b840191505092915050565b600060808201905061433d6000830187612d69565b61434a6020830186612d69565b6143576040830185612e3f565b818103606083015261436981846142ef565b905095945050505050565b60008151905061438381612b93565b92915050565b60006020828403121561439f5761439e612b5d565b5b60006143ad84828501614374565b91505092915050565b7f4552433732313a206d696e7420746f20746865207a65726f2061646472657373600082015250565b60006143ec602083612c2d565b91506143f7826143b6565b602082019050919050565b6000602082019050818103600083015261441b816143df565b9050919050565b7f4552433732313a20746f6b656e20616c7265616479206d696e74656400000000600082015250565b6000614458601c83612c2d565b915061446382614422565b602082019050919050565b600060208201905081810360008301526144878161444b565b9050919050565b7f455243373231456e756d657261626c653a20636f6e736563757469766520747260008201527f616e7366657273206e6f7420737570706f727465640000000000000000000000602082015250565b60006144ea603583612c2d565b91506144f58261448e565b604082019050919050565b60006020820190508181036000830152614519816144dd565b9050919050565b7f4e487b7100000000000000000000000000000000000000000000000000000000600052601260045260246000fd5b600061455a82612cd4565b915061456583612cd4565b925082820390508181111561457d5761457c613914565b5b92915050565b7f4e487b7100000000000000000000000000000000000000000000000000000000600052603160045260246000fdfea26469706673582212204500edbee4924bb21b6b0a403997ba9a69e8d0bd077fe600b5e5d4d6e81a6aca64736f6c6343000812003368747470733a2f2f697066732e696f2f697066732f516d5a64374b5053686a33344761717a554e534c566757463741596b766752646b7477686f464635754a314651722f",
  "linkReferences": {},
  "deployedLinkReferences": {}
}