{
  "_format": "hh-sol-artifact-1",
  "contractName": "Hortulo",
  "sourceName": "contracts/Hortulo.sol",
  "abi": [
    {
      "inputs": [
        {
          "internalType": "contract IToucanPoolToken",
          "name": "_natureCarbonPoolToken",
          "type": "address"
        }
      ],
      "stateMutability": "nonpayable",
      "type": "constructor"
    },
    {
      "anonymous": false,
      "inputs": [
        {
          "indexed": true,
          "internalType": "address",
          "name": "owner",
          "type": "address"
        },
        {
          "indexed": true,
          "internalType": "address",
          "name": "approved",
          "type": "address"
        },
        {
          "indexed": true,
          "internalType": "uint256",
          "name": "tokenId",
          "type": "uint256"
        }
      ],
      "name": "Approval",
      "type": "event"
    },
    {
      "anonymous": false,
      "inputs": [
        {
          "indexed": true,
          "internalType": "address",
          "name": "owner",
          "type": "address"
        },
        {
          "indexed": true,
          "internalType": "address",
          "name": "operator",
          "type": "address"
        },
        {
          "indexed": false,
          "internalType": "bool",
          "name": "approved",
          "type": "bool"
        }
      ],
      "name": "ApprovalForAll",
      "type": "event"
    },
    {
      "anonymous": false,
      "inputs": [
        {
          "indexed": true,
          "internalType": "address",
          "name": "previousOwner",
          "type": "address"
        },
        {
          "indexed": true,
          "internalType": "address",
          "name": "newOwner",
          "type": "address"
        }
      ],
      "name": "OwnershipTransferred",
      "type": "event"
    },
    {
      "anonymous": false,
      "inputs": [
        {
          "indexed": true,
          "internalType": "address",
          "name": "from",
          "type": "address"
        },
        {
          "indexed": true,
          "internalType": "address",
          "name": "to",
          "type": "address"
        },
        {
          "indexed": true,
          "internalType": "uint256",
          "name": "tokenId",
          "type": "uint256"
        }
      ],
      "name": "Transfer",
      "type": "event"
    },
    {
      "inputs": [
        {
          "internalType": "address",
          "name": "to",
          "type": "address"
        },
        {
          "internalType": "uint256",
          "name": "tokenId",
          "type": "uint256"
        }
      ],
      "name": "approve",
      "outputs": [],
      "stateMutability": "nonpayable",
      "type": "function"
    },
    {
      "inputs": [
        {
          "internalType": "address",
          "name": "owner",
          "type": "address"
        }
      ],
      "name": "balanceOf",
      "outputs": [
        {
          "internalType": "uint256",
          "name": "",
          "type": "uint256"
        }
      ],
      "stateMutability": "view",
      "type": "function"
    },
    {
      "inputs": [],
      "name": "baseURI",
      "outputs": [
        {
          "internalType": "string",
          "name": "",
          "type": "string"
        }
      ],
      "stateMutability": "view",
      "type": "function"
    },
    {
      "inputs": [],
      "name": "cost",
      "outputs": [
        {
          "internalType": "uint256",
          "name": "",
          "type": "uint256"
        }
      ],
      "stateMutability": "view",
      "type": "function"
    },
    {
      "inputs": [
        {
          "internalType": "uint256",
          "name": "tokenId",
          "type": "uint256"
        }
      ],
      "name": "getApproved",
      "outputs": [
        {
          "internalType": "address",
          "name": "",
          "type": "address"
        }
      ],
      "stateMutability": "view",
      "type": "function"
    },
    {
      "inputs": [
        {
          "internalType": "uint256",
          "name": "_tokenId",
          "type": "uint256"
        }
      ],
      "name": "getRetiredCarbonAmount",
      "outputs": [
        {
          "internalType": "uint256",
          "name": "",
          "type": "uint256"
        }
      ],
      "stateMutability": "view",
      "type": "function"
    },
    {
      "inputs": [
        {
          "internalType": "address",
          "name": "owner",
          "type": "address"
        },
        {
          "internalType": "address",
          "name": "operator",
          "type": "address"
        }
      ],
      "name": "isApprovedForAll",
      "outputs": [
        {
          "internalType": "bool",
          "name": "",
          "type": "bool"
        }
      ],
      "stateMutability": "view",
      "type": "function"
    },
    {
      "inputs": [],
      "name": "mint",
      "outputs": [],
      "stateMutability": "payable",
      "type": "function"
    },
    {
      "inputs": [],
      "name": "name",
      "outputs": [
        {
          "internalType": "string",
          "name": "",
          "type": "string"
        }
      ],
      "stateMutability": "view",
      "type": "function"
    },
    {
      "inputs": [],
      "name": "natureCarbonPoolToken",
      "outputs": [
        {
          "internalType": "contract IToucanPoolToken",
          "name": "",
          "type": "address"
        }
      ],
      "stateMutability": "view",
      "type": "function"
    },
    {
      "inputs": [
        {
          "internalType": "uint256",
          "name": "_tokenId",
          "type": "uint256"
        },
        {
          "internalType": "uint256",
          "name": "_amount",
          "type": "uint256"
        }
      ],
      "name": "offsetCarbon",
      "outputs": [],
      "stateMutability": "nonpayable",
      "type": "function"
    },
    {
      "inputs": [],
      "name": "owner",
      "outputs": [
        {
          "internalType": "address",
          "name": "",
          "type": "address"
        }
      ],
      "stateMutability": "view",
      "type": "function"
    },
    {
      "inputs": [
        {
          "internalType": "uint256",
          "name": "tokenId",
          "type": "uint256"
        }
      ],
      "name": "ownerOf",
      "outputs": [
        {
          "internalType": "address",
          "name": "",
          "type": "address"
        }
      ],
      "stateMutability": "view",
      "type": "function"
    },
    {
      "inputs": [],
      "name": "renounceOwnership",
      "outputs": [],
      "stateMutability": "nonpayable",
      "type": "function"
    },
    {
      "inputs": [
        {
          "internalType": "uint256",
          "name": "",
          "type": "uint256"
        }
      ],
      "name": "retirements",
      "outputs": [
        {
          "internalType": "uint256",
          "name": "",
          "type": "uint256"
        }
      ],
      "stateMutability": "view",
      "type": "function"
    },
    {
      "inputs": [
        {
          "internalType": "address",
          "name": "from",
          "type": "address"
        },
        {
          "internalType": "address",
          "name": "to",
          "type": "address"
        },
        {
          "internalType": "uint256",
          "name": "tokenId",
          "type": "uint256"
        }
      ],
      "name": "safeTransferFrom",
      "outputs": [],
      "stateMutability": "nonpayable",
      "type": "function"
    },
    {
      "inputs": [
        {
          "internalType": "address",
          "name": "from",
          "type": "address"
        },
        {
          "internalType": "address",
          "name": "to",
          "type": "address"
        },
        {
          "internalType": "uint256",
          "name": "tokenId",
          "type": "uint256"
        },
        {
          "internalType": "bytes",
          "name": "data",
          "type": "bytes"
        }
      ],
      "name": "safeTransferFrom",
      "outputs": [],
      "stateMutability": "nonpayable",
      "type": "function"
    },
    {
      "inputs": [
        {
          "internalType": "address",
          "name": "operator",
          "type": "address"
        },
        {
          "internalType": "bool",
          "name": "approved",
          "type": "bool"
        }
      ],
      "name": "setApprovalForAll",
      "outputs": [],
      "stateMutability": "nonpayable",
      "type": "function"
    },
    {
      "inputs": [
        {
          "internalType": "string",
          "name": "_newBaseURI",
          "type": "string"
        }
      ],
      "name": "setBaseURI",
      "outputs": [],
      "stateMutability": "nonpayable",
      "type": "function"
    },
    {
      "inputs": [
        {
          "internalType": "uint256",
          "name": "_newCost",
          "type": "uint256"
        }
      ],
      "name": "setCost",
      "outputs": [],
      "stateMutability": "nonpayable",
      "type": "function"
    },
    {
      "inputs": [
        {
          "internalType": "bytes4",
          "name": "interfaceId",
          "type": "bytes4"
        }
      ],
      "name": "supportsInterface",
      "outputs": [
        {
          "internalType": "bool",
          "name": "",
          "type": "bool"
        }
      ],
      "stateMutability": "view",
      "type": "function"
    },
    {
      "inputs": [],
      "name": "symbol",
      "outputs": [
        {
          "internalType": "string",
          "name": "",
          "type": "string"
        }
      ],
      "stateMutability": "view",
      "type": "function"
    },
    {
      "inputs": [
        {
          "internalType": "uint256",
          "name": "index",
          "type": "uint256"
        }
      ],
      "name": "tokenByIndex",
      "outputs": [
        {
          "internalType": "uint256",
          "name": "",
          "type": "uint256"
        }
      ],
      "stateMutability": "view",
      "type": "function"
    },
    {
      "inputs": [
        {
          "internalType": "address",
          "name": "owner",
          "type": "address"
        },
        {
          "internalType": "uint256",
          "name": "index",
          "type": "uint256"
        }
      ],
      "name": "tokenOfOwnerByIndex",
      "outputs": [
        {
          "internalType": "uint256",
          "name": "",
          "type": "uint256"
        }
      ],
      "stateMutability": "view",
      "type": "function"
    },
    {
      "inputs": [
        {
          "internalType": "uint256",
          "name": "tokenId",
          "type": "uint256"
        }
      ],
      "name": "tokenURI",
      "outputs": [
        {
          "internalType": "string",
          "name": "",
          "type": "string"
        }
      ],
      "stateMutability": "view",
      "type": "function"
    },
    {
      "inputs": [
        {
          "internalType": "address",
          "name": "_owner",
          "type": "address"
        }
      ],
      "name": "tokensByOwner",
      "outputs": [
        {
          "internalType": "uint256[]",
          "name": "",
          "type": "uint256[]"
        }
      ],
      "stateMutability": "view",
      "type": "function"
    },
    {
      "inputs": [],
      "name": "totalSupply",
      "outputs": [
        {
          "internalType": "uint256",
          "name": "",
          "type": "uint256"
        }
      ],
      "stateMutability": "view",
      "type": "function"
    },
    {
      "inputs": [
        {
          "internalType": "address",
          "name": "from",
          "type": "address"
        },
        {
          "internalType": "address",
          "name": "to",
          "type": "address"
        },
        {
          "internalType": "uint256",
          "name": "tokenId",
          "type": "uint256"
        }
      ],
      "name": "transferFrom",
      "outputs": [],
      "stateMutability": "nonpayable",
      "type": "function"
    },
    {
      "inputs": [
        {
          "internalType": "address",
          "name": "newOwner",
          "type": "address"
        }
      ],
      "name": "transferOwnership",
      "outputs": [],
      "stateMutability": "nonpayable",
      "type": "function"
    }
  ],
  "bytecode": "0x60806040526000600e553480156200001657600080fd5b5060405162004fb538038062004fb583398181016040528101906200003c91906200038c565b6040518060400160405280600781526020017f486f7274756c6f000000000000000000000000000000000000000000000000008152506040518060400160405280600781526020017f484f5254554c4f000000000000000000000000000000000000000000000000008152508160009081620000b9919062000638565b508060019081620000cb919062000638565b505050620000ee620000e26200016060201b60201c565b6200016860201b60201c565b6200011860405180608001604052806044815260200162004f71604491396200022e60201b60201c565b80600f60006101000a81548173ffffffffffffffffffffffffffffffffffffffff021916908373ffffffffffffffffffffffffffffffffffffffff16021790555050620007a2565b600033905090565b6000600b60009054906101000a900473ffffffffffffffffffffffffffffffffffffffff16905081600b60006101000a81548173ffffffffffffffffffffffffffffffffffffffff021916908373ffffffffffffffffffffffffffffffffffffffff1602179055508173ffffffffffffffffffffffffffffffffffffffff168173ffffffffffffffffffffffffffffffffffffffff167f8be0079c531659141344cd1fd0a4f28419497f9722a3daafe3b4186f6b6457e060405160405180910390a35050565b6200023e6200025360201b60201c565b80600d90816200024f919062000638565b5050565b620002636200016060201b60201c565b73ffffffffffffffffffffffffffffffffffffffff1662000289620002e460201b60201c565b73ffffffffffffffffffffffffffffffffffffffff1614620002e2576040517f08c379a0000000000000000000000000000000000000000000000000000000008152600401620002d99062000780565b60405180910390fd5b565b6000600b60009054906101000a900473ffffffffffffffffffffffffffffffffffffffff16905090565b600080fd5b600073ffffffffffffffffffffffffffffffffffffffff82169050919050565b6000620003408262000313565b9050919050565b6000620003548262000333565b9050919050565b620003668162000347565b81146200037257600080fd5b50565b60008151905062000386816200035b565b92915050565b600060208284031215620003a557620003a46200030e565b5b6000620003b58482850162000375565b91505092915050565b600081519050919050565b7f4e487b7100000000000000000000000000000000000000000000000000000000600052604160045260246000fd5b7f4e487b7100000000000000000000000000000000000000000000000000000000600052602260045260246000fd5b600060028204905060018216806200044057607f821691505b602082108103620004565762000455620003f8565b5b50919050565b60008190508160005260206000209050919050565b60006020601f8301049050919050565b600082821b905092915050565b600060088302620004c07fffffffffffffffffffffffffffffffffffffffffffffffffffffffffffffffff8262000481565b620004cc868362000481565b95508019841693508086168417925050509392505050565b6000819050919050565b6000819050919050565b600062000519620005136200050d84620004e4565b620004ee565b620004e4565b9050919050565b6000819050919050565b6200053583620004f8565b6200054d620005448262000520565b8484546200048e565b825550505050565b600090565b6200056462000555565b620005718184846200052a565b505050565b5b8181101562000599576200058d6000826200055a565b60018101905062000577565b5050565b601f821115620005e857620005b2816200045c565b620005bd8462000471565b81016020851015620005cd578190505b620005e5620005dc8562000471565b83018262000576565b50505b505050565b600082821c905092915050565b60006200060d60001984600802620005ed565b1980831691505092915050565b6000620006288383620005fa565b9150826002028217905092915050565b6200064382620003be565b67ffffffffffffffff8111156200065f576200065e620003c9565b5b6200066b825462000427565b620006788282856200059d565b600060209050601f831160018114620006b057600084156200069b578287015190505b620006a785826200061a565b86555062000717565b601f198416620006c0866200045c565b60005b82811015620006ea57848901518255600182019150602085019450602081019050620006c3565b868310156200070a578489015162000706601f891682620005fa565b8355505b6001600288020188555050505b505050505050565b600082825260208201905092915050565b7f4f776e61626c653a2063616c6c6572206973206e6f7420746865206f776e6572600082015250565b6000620007686020836200071f565b9150620007758262000730565b602082019050919050565b600060208201905081810360008301526200079b8162000759565b9050919050565b6147bf80620007b26000396000f3fe6080604052600436106101c25760003560e01c806355f804b3116100f75780638da5cb5b11610095578063c87b56dd11610064578063c87b56dd14610657578063d78e22ab14610694578063e985e9c5146106bf578063f2fde38b146106fc576101c2565b80638da5cb5b146105af57806395d89b41146105da578063a22cb46514610605578063b88d4fde1461062e576101c2565b80636c0360eb116100d15780636c0360eb146104f357806370a082311461051e578063715018a61461055b57806377b4a22314610572576101c2565b806355f804b31461045057806361e4678b146104795780636352211e146104b6576101c2565b806313faede6116101645780632f745c591161013e5780632f745c591461038457806342842e0e146103c157806344a0d68a146103ea5780634f6ccce714610413576101c2565b806313faede61461030557806318160ddd1461033057806323b872dd1461035b576101c2565b8063095ea7b3116101a0578063095ea7b31461026c578063097b2115146102955780630d381a28146102be5780631249c58b146102fb576101c2565b806301ffc9a7146101c757806306fdde0314610204578063081812fc1461022f575b600080fd5b3480156101d357600080fd5b506101ee60048036038101906101e99190612cb6565b610725565b6040516101fb9190612cfe565b60405180910390f35b34801561021057600080fd5b50610219610737565b6040516102269190612da9565b60405180910390f35b34801561023b57600080fd5b5061025660048036038101906102519190612e01565b6107c9565b6040516102639190612e6f565b60405180910390f35b34801561027857600080fd5b50610293600480360381019061028e9190612eb6565b61080f565b005b3480156102a157600080fd5b506102bc60048036038101906102b79190612ef6565b610926565b005b3480156102ca57600080fd5b506102e560048036038101906102e09190612f36565b610dc7565b6040516102f29190613021565b60405180910390f35b610303610e76565b005b34801561031157600080fd5b5061031a610ee0565b6040516103279190613052565b60405180910390f35b34801561033c57600080fd5b50610345610ee6565b6040516103529190613052565b60405180910390f35b34801561036757600080fd5b50610382600480360381019061037d919061306d565b610ef3565b005b34801561039057600080fd5b506103ab60048036038101906103a69190612eb6565b610f53565b6040516103b89190613052565b60405180910390f35b3480156103cd57600080fd5b506103e860048036038101906103e3919061306d565b610ff8565b005b3480156103f657600080fd5b50610411600480360381019061040c9190612e01565b611018565b005b34801561041f57600080fd5b5061043a60048036038101906104359190612e01565b61102a565b6040516104479190613052565b60405180910390f35b34801561045c57600080fd5b50610477600480360381019061047291906131f5565b61109b565b005b34801561048557600080fd5b506104a0600480360381019061049b9190612e01565b6110b6565b6040516104ad9190613052565b60405180910390f35b3480156104c257600080fd5b506104dd60048036038101906104d89190612e01565b6110ce565b6040516104ea9190612e6f565b60405180910390f35b3480156104ff57600080fd5b50610508611154565b6040516105159190612da9565b60405180910390f35b34801561052a57600080fd5b5061054560048036038101906105409190612f36565b6111e2565b6040516105529190613052565b60405180910390f35b34801561056757600080fd5b50610570611299565b005b34801561057e57600080fd5b5061059960048036038101906105949190612e01565b6112ad565b6040516105a69190613052565b60405180910390f35b3480156105bb57600080fd5b506105c46112ca565b6040516105d19190612e6f565b60405180910390f35b3480156105e657600080fd5b506105ef6112f4565b6040516105fc9190612da9565b60405180910390f35b34801561061157600080fd5b5061062c6004803603810190610627919061326a565b611386565b005b34801561063a57600080fd5b506106556004803603810190610650919061334b565b61139c565b005b34801561066357600080fd5b5061067e60048036038101906106799190612e01565b6113fe565b60405161068b9190612da9565b60405180910390f35b3480156106a057600080fd5b506106a9611410565b6040516106b6919061342d565b60405180910390f35b3480156106cb57600080fd5b506106e660048036038101906106e19190613448565b611436565b6040516106f39190612cfe565b60405180910390f35b34801561070857600080fd5b50610723600480360381019061071e9190612f36565b6114ca565b005b60006107308261154d565b9050919050565b606060008054610746906134b7565b80601f0160208091040260200160405190810160405280929190818152602001828054610772906134b7565b80156107bf5780601f10610794576101008083540402835291602001916107bf565b820191906000526020600020905b8154815290600101906020018083116107a257829003601f168201915b5050505050905090565b60006107d4826115c7565b6004600083815260200190815260200160002060009054906101000a900473ffffffffffffffffffffffffffffffffffffffff169050919050565b600061081a826110ce565b90508073ffffffffffffffffffffffffffffffffffffffff168373ffffffffffffffffffffffffffffffffffffffff160361088a576040517f08c379a00000000000000000000000000000000000000000000000000000000081526004016108819061355a565b60405180910390fd5b8073ffffffffffffffffffffffffffffffffffffffff166108a9611612565b73ffffffffffffffffffffffffffffffffffffffff1614806108d857506108d7816108d2611612565b611436565b5b610917576040517f08c379a000000000000000000000000000000000000000000000000000000000815260040161090e906135ec565b60405180910390fd5b610921838361161a565b505050565b3373ffffffffffffffffffffffffffffffffffffffff163073ffffffffffffffffffffffffffffffffffffffff16636352211e846040518263ffffffff1660e01b81526004016109769190613052565b602060405180830381865afa158015610993573d6000803e3d6000fd5b505050506040513d601f19601f820116820180604052508101906109b79190613621565b73ffffffffffffffffffffffffffffffffffffffff1614610a0d576040517f08c379a0000000000000000000000000000000000000000000000000000000008152600401610a049061369a565b60405180910390fd5b610a16826116d3565b610a55576040517f08c379a0000000000000000000000000000000000000000000000000000000008152600401610a4c90613706565b60405180910390fd5b80600f60009054906101000a900473ffffffffffffffffffffffffffffffffffffffff1673ffffffffffffffffffffffffffffffffffffffff166370a08231336040518263ffffffff1660e01b8152600401610ab19190612e6f565b602060405180830381865afa158015610ace573d6000803e3d6000fd5b505050506040513d601f19601f82011682018060405250810190610af2919061373b565b1015610b33576040517f08c379a0000000000000000000000000000000000000000000000000000000008152600401610b2a906137b4565b60405180910390fd5b600f60009054906101000a900473ffffffffffffffffffffffffffffffffffffffff1673ffffffffffffffffffffffffffffffffffffffff166323b872dd3330846040518463ffffffff1660e01b8152600401610b92939291906137d4565b6020604051808303816000875af1158015610bb1573d6000803e3d6000fd5b505050506040513d601f19601f82011682018060405250810190610bd59190613820565b610c14576040517f08c379a0000000000000000000000000000000000000000000000000000000008152600401610c0b90613899565b60405180910390fd5b600080600f60009054906101000a900473ffffffffffffffffffffffffffffffffffffffff1673ffffffffffffffffffffffffffffffffffffffff16634c02cad1846040518263ffffffff1660e01b8152600401610c729190613052565b6000604051808303816000875af1158015610c91573d6000803e3d6000fd5b505050506040513d6000823e3d601f19601f82011682018060405250810190610cba9190613a44565b9150915060005b8251811015610dc057828181518110610cdd57610cdc613abc565b5b602002602001015173ffffffffffffffffffffffffffffffffffffffff16633790cf57838381518110610d1357610d12613abc565b5b60200260200101516040518263ffffffff1660e01b8152600401610d379190613052565b600060405180830381600087803b158015610d5157600080fd5b505af1158015610d65573d6000803e3d6000fd5b50505050818181518110610d7c57610d7b613abc565b5b6020026020010151601060008781526020019081526020016000206000828254610da69190613b1a565b925050819055508080610db890613b4e565b915050610cc1565b5050505050565b60606000610dd4836111e2565b905060008167ffffffffffffffff811115610df257610df16130ca565b5b604051908082528060200260200182016040528015610e205781602001602082028036833780820191505090505b50905060005b8151811015610e6b57610e398582610f53565b828281518110610e4c57610e4b613abc565b5b6020026020010181815250508080610e6390613b4e565b915050610e26565b508092505050919050565b600e54341015610ebb576040517f08c379a0000000000000000000000000000000000000000000000000000000008152600401610eb290613be2565b60405180910390fd5b6000610ec7600c611714565b9050610ed3600c611722565b610edd3382611738565b50565b600e5481565b6000600880549050905090565b610f04610efe611612565b82611756565b610f43576040517f08c379a0000000000000000000000000000000000000000000000000000000008152600401610f3a90613c74565b60405180910390fd5b610f4e8383836117eb565b505050565b6000610f5e836111e2565b8210610f9f576040517f08c379a0000000000000000000000000000000000000000000000000000000008152600401610f9690613d06565b60405180910390fd5b600660008473ffffffffffffffffffffffffffffffffffffffff1673ffffffffffffffffffffffffffffffffffffffff168152602001908152602001600020600083815260200190815260200160002054905092915050565b6110138383836040518060200160405280600081525061139c565b505050565b611020611ae4565b80600e8190555050565b6000611034610ee6565b8210611075576040517f08c379a000000000000000000000000000000000000000000000000000000000815260040161106c90613d98565b60405180910390fd5b6008828154811061108957611088613abc565b5b90600052602060002001549050919050565b6110a3611ae4565b80600d90816110b29190613f5a565b5050565b60106020528060005260406000206000915090505481565b6000806110da83611b62565b9050600073ffffffffffffffffffffffffffffffffffffffff168173ffffffffffffffffffffffffffffffffffffffff160361114b576040517f08c379a000000000000000000000000000000000000000000000000000000000815260040161114290614078565b60405180910390fd5b80915050919050565b600d8054611161906134b7565b80601f016020809104026020016040519081016040528092919081815260200182805461118d906134b7565b80156111da5780601f106111af576101008083540402835291602001916111da565b820191906000526020600020905b8154815290600101906020018083116111bd57829003601f168201915b505050505081565b60008073ffffffffffffffffffffffffffffffffffffffff168273ffffffffffffffffffffffffffffffffffffffff1603611252576040517f08c379a00000000000000000000000000000000000000000000000000000000081526004016112499061410a565b60405180910390fd5b600360008373ffffffffffffffffffffffffffffffffffffffff1673ffffffffffffffffffffffffffffffffffffffff168152602001908152602001600020549050919050565b6112a1611ae4565b6112ab6000611b9f565b565b600060106000838152602001908152602001600020549050919050565b6000600b60009054906101000a900473ffffffffffffffffffffffffffffffffffffffff16905090565b606060018054611303906134b7565b80601f016020809104026020016040519081016040528092919081815260200182805461132f906134b7565b801561137c5780601f106113515761010080835404028352916020019161137c565b820191906000526020600020905b81548152906001019060200180831161135f57829003601f168201915b5050505050905090565b611398611391611612565b8383611c65565b5050565b6113ad6113a7611612565b83611756565b6113ec576040517f08c379a00000000000000000000000000000000000000000000000000000000081526004016113e390613c74565b60405180910390fd5b6113f884848484611dd1565b50505050565b606061140982611e2d565b9050919050565b600f60009054906101000a900473ffffffffffffffffffffffffffffffffffffffff1681565b6000600560008473ffffffffffffffffffffffffffffffffffffffff1673ffffffffffffffffffffffffffffffffffffffff16815260200190815260200160002060008373ffffffffffffffffffffffffffffffffffffffff1673ffffffffffffffffffffffffffffffffffffffff16815260200190815260200160002060009054906101000a900460ff16905092915050565b6114d2611ae4565b600073ffffffffffffffffffffffffffffffffffffffff168173ffffffffffffffffffffffffffffffffffffffff1603611541576040517f08c379a00000000000000000000000000000000000000000000000000000000081526004016115389061419c565b60405180910390fd5b61154a81611b9f565b50565b60007f780e9d63000000000000000000000000000000000000000000000000000000007bffffffffffffffffffffffffffffffffffffffffffffffffffffffff1916827bffffffffffffffffffffffffffffffffffffffffffffffffffffffff191614806115c057506115bf82611f3f565b5b9050919050565b6115d0816116d3565b61160f576040517f08c379a000000000000000000000000000000000000000000000000000000000815260040161160690614078565b60405180910390fd5b50565b600033905090565b816004600083815260200190815260200160002060006101000a81548173ffffffffffffffffffffffffffffffffffffffff021916908373ffffffffffffffffffffffffffffffffffffffff160217905550808273ffffffffffffffffffffffffffffffffffffffff1661168d836110ce565b73ffffffffffffffffffffffffffffffffffffffff167f8c5be1e5ebec7d5bd14f71427d1e84f3dd0314c0f7b2291e5b200ac8c7c3b92560405160405180910390a45050565b60008073ffffffffffffffffffffffffffffffffffffffff166116f583611b62565b73ffffffffffffffffffffffffffffffffffffffff1614159050919050565b600081600001549050919050565b6001816000016000828254019250508190555050565b611752828260405180602001604052806000815250612021565b5050565b600080611762836110ce565b90508073ffffffffffffffffffffffffffffffffffffffff168473ffffffffffffffffffffffffffffffffffffffff1614806117a457506117a38185611436565b5b806117e257508373ffffffffffffffffffffffffffffffffffffffff166117ca846107c9565b73ffffffffffffffffffffffffffffffffffffffff16145b91505092915050565b8273ffffffffffffffffffffffffffffffffffffffff1661180b826110ce565b73ffffffffffffffffffffffffffffffffffffffff1614611861576040517f08c379a00000000000000000000000000000000000000000000000000000000081526004016118589061422e565b60405180910390fd5b600073ffffffffffffffffffffffffffffffffffffffff168273ffffffffffffffffffffffffffffffffffffffff16036118d0576040517f08c379a00000000000000000000000000000000000000000000000000000000081526004016118c7906142c0565b60405180910390fd5b6118dd838383600161207c565b8273ffffffffffffffffffffffffffffffffffffffff166118fd826110ce565b73ffffffffffffffffffffffffffffffffffffffff1614611953576040517f08c379a000000000000000000000000000000000000000000000000000000000815260040161194a9061422e565b60405180910390fd5b6004600082815260200190815260200160002060006101000a81549073ffffffffffffffffffffffffffffffffffffffff02191690556001600360008573ffffffffffffffffffffffffffffffffffffffff1673ffffffffffffffffffffffffffffffffffffffff168152602001908152602001600020600082825403925050819055506001600360008473ffffffffffffffffffffffffffffffffffffffff1673ffffffffffffffffffffffffffffffffffffffff16815260200190815260200160002060008282540192505081905550816002600083815260200190815260200160002060006101000a81548173ffffffffffffffffffffffffffffffffffffffff021916908373ffffffffffffffffffffffffffffffffffffffff160217905550808273ffffffffffffffffffffffffffffffffffffffff168473ffffffffffffffffffffffffffffffffffffffff167fddf252ad1be2c89b69c2b068fc378daa952ba7f163c4a11628f55a4df523b3ef60405160405180910390a4611adf838383600161208e565b505050565b611aec611612565b73ffffffffffffffffffffffffffffffffffffffff16611b0a6112ca565b73ffffffffffffffffffffffffffffffffffffffff1614611b60576040517f08c379a0000000000000000000000000000000000000000000000000000000008152600401611b579061432c565b60405180910390fd5b565b60006002600083815260200190815260200160002060009054906101000a900473ffffffffffffffffffffffffffffffffffffffff169050919050565b6000600b60009054906101000a900473ffffffffffffffffffffffffffffffffffffffff16905081600b60006101000a81548173ffffffffffffffffffffffffffffffffffffffff021916908373ffffffffffffffffffffffffffffffffffffffff1602179055508173ffffffffffffffffffffffffffffffffffffffff168173ffffffffffffffffffffffffffffffffffffffff167f8be0079c531659141344cd1fd0a4f28419497f9722a3daafe3b4186f6b6457e060405160405180910390a35050565b8173ffffffffffffffffffffffffffffffffffffffff168373ffffffffffffffffffffffffffffffffffffffff1603611cd3576040517f08c379a0000000000000000000000000000000000000000000000000000000008152600401611cca90614398565b60405180910390fd5b80600560008573ffffffffffffffffffffffffffffffffffffffff1673ffffffffffffffffffffffffffffffffffffffff16815260200190815260200160002060008473ffffffffffffffffffffffffffffffffffffffff1673ffffffffffffffffffffffffffffffffffffffff16815260200190815260200160002060006101000a81548160ff0219169083151502179055508173ffffffffffffffffffffffffffffffffffffffff168373ffffffffffffffffffffffffffffffffffffffff167f17307eab39ab6107e8899845ad3d59bd9653f200f220920489ca2b5937696c3183604051611dc49190612cfe565b60405180910390a3505050565b611ddc8484846117eb565b611de884848484612094565b611e27576040517f08c379a0000000000000000000000000000000000000000000000000000000008152600401611e1e9061442a565b60405180910390fd5b50505050565b6060611e38826115c7565b6000600a60008481526020019081526020016000208054611e58906134b7565b80601f0160208091040260200160405190810160405280929190818152602001828054611e84906134b7565b8015611ed15780601f10611ea657610100808354040283529160200191611ed1565b820191906000526020600020905b815481529060010190602001808311611eb457829003601f168201915b505050505090506000611ee261221b565b90506000815103611ef7578192505050611f3a565b600082511115611f2c578082604051602001611f14929190614486565b60405160208183030381529060405292505050611f3a565b611f35846122ad565b925050505b919050565b60007f80ac58cd000000000000000000000000000000000000000000000000000000007bffffffffffffffffffffffffffffffffffffffffffffffffffffffff1916827bffffffffffffffffffffffffffffffffffffffffffffffffffffffff1916148061200a57507f5b5e139f000000000000000000000000000000000000000000000000000000007bffffffffffffffffffffffffffffffffffffffffffffffffffffffff1916827bffffffffffffffffffffffffffffffffffffffffffffffffffffffff1916145b8061201a575061201982612315565b5b9050919050565b61202b838361237f565b6120386000848484612094565b612077576040517f08c379a000000000000000000000000000000000000000000000000000000000815260040161206e9061442a565b60405180910390fd5b505050565b6120888484848461259c565b50505050565b50505050565b60006120b58473ffffffffffffffffffffffffffffffffffffffff166126fa565b1561220e578373ffffffffffffffffffffffffffffffffffffffff1663150b7a026120de611612565b8786866040518563ffffffff1660e01b815260040161210094939291906144ff565b6020604051808303816000875af192505050801561213c57506040513d601f19601f820116820180604052508101906121399190614560565b60015b6121be573d806000811461216c576040519150601f19603f3d011682016040523d82523d6000602084013e612171565b606091505b5060008151036121b6576040517f08c379a00000000000000000000000000000000000000000000000000000000081526004016121ad9061442a565b60405180910390fd5b805181602001fd5b63150b7a0260e01b7bffffffffffffffffffffffffffffffffffffffffffffffffffffffff1916817bffffffffffffffffffffffffffffffffffffffffffffffffffffffff191614915050612213565b600190505b949350505050565b6060600d805461222a906134b7565b80601f0160208091040260200160405190810160405280929190818152602001828054612256906134b7565b80156122a35780601f10612278576101008083540402835291602001916122a3565b820191906000526020600020905b81548152906001019060200180831161228657829003601f168201915b5050505050905090565b60606122b8826115c7565b60006122c261221b565b905060008151116122e2576040518060200160405280600081525061230d565b806122ec8461271d565b6040516020016122fd929190614486565b6040516020818303038152906040525b915050919050565b60007f01ffc9a7000000000000000000000000000000000000000000000000000000007bffffffffffffffffffffffffffffffffffffffffffffffffffffffff1916827bffffffffffffffffffffffffffffffffffffffffffffffffffffffff1916149050919050565b600073ffffffffffffffffffffffffffffffffffffffff168273ffffffffffffffffffffffffffffffffffffffff16036123ee576040517f08c379a00000000000000000000000000000000000000000000000000000000081526004016123e5906145d9565b60405180910390fd5b6123f7816116d3565b15612437576040517f08c379a000000000000000000000000000000000000000000000000000000000815260040161242e90614645565b60405180910390fd5b61244560008383600161207c565b61244e816116d3565b1561248e576040517f08c379a000000000000000000000000000000000000000000000000000000000815260040161248590614645565b60405180910390fd5b6001600360008473ffffffffffffffffffffffffffffffffffffffff1673ffffffffffffffffffffffffffffffffffffffff16815260200190815260200160002060008282540192505081905550816002600083815260200190815260200160002060006101000a81548173ffffffffffffffffffffffffffffffffffffffff021916908373ffffffffffffffffffffffffffffffffffffffff160217905550808273ffffffffffffffffffffffffffffffffffffffff16600073ffffffffffffffffffffffffffffffffffffffff167fddf252ad1be2c89b69c2b068fc378daa952ba7f163c4a11628f55a4df523b3ef60405160405180910390a461259860008383600161208e565b5050565b6125a8848484846127eb565b60018111156125ec576040517f08c379a00000000000000000000000000000000000000000000000000000000081526004016125e3906146d7565b60405180910390fd5b6000829050600073ffffffffffffffffffffffffffffffffffffffff168573ffffffffffffffffffffffffffffffffffffffff16036126335761262e816127f1565b612672565b8373ffffffffffffffffffffffffffffffffffffffff168573ffffffffffffffffffffffffffffffffffffffff161461267157612670858261283a565b5b5b600073ffffffffffffffffffffffffffffffffffffffff168473ffffffffffffffffffffffffffffffffffffffff16036126b4576126af816129a7565b6126f3565b8473ffffffffffffffffffffffffffffffffffffffff168473ffffffffffffffffffffffffffffffffffffffff16146126f2576126f18482612a78565b5b5b5050505050565b6000808273ffffffffffffffffffffffffffffffffffffffff163b119050919050565b60606000600161272c84612af7565b01905060008167ffffffffffffffff81111561274b5761274a6130ca565b5b6040519080825280601f01601f19166020018201604052801561277d5781602001600182028036833780820191505090505b509050600082602001820190505b6001156127e0578080600190039150507f3031323334353637383961626364656600000000000000000000000000000000600a86061a8153600a85816127d4576127d36146f7565b5b0494506000850361278b575b819350505050919050565b50505050565b6008805490506009600083815260200190815260200160002081905550600881908060018154018082558091505060019003906000526020600020016000909190919091505550565b60006001612847846111e2565b6128519190614726565b9050600060076000848152602001908152602001600020549050818114612936576000600660008673ffffffffffffffffffffffffffffffffffffffff1673ffffffffffffffffffffffffffffffffffffffff168152602001908152602001600020600084815260200190815260200160002054905080600660008773ffffffffffffffffffffffffffffffffffffffff1673ffffffffffffffffffffffffffffffffffffffff168152602001908152602001600020600084815260200190815260200160002081905550816007600083815260200190815260200160002081905550505b6007600084815260200190815260200160002060009055600660008573ffffffffffffffffffffffffffffffffffffffff1673ffffffffffffffffffffffffffffffffffffffff16815260200190815260200160002060008381526020019081526020016000206000905550505050565b600060016008805490506129bb9190614726565b90506000600960008481526020019081526020016000205490506000600883815481106129eb576129ea613abc565b5b906000526020600020015490508060088381548110612a0d57612a0c613abc565b5b906000526020600020018190555081600960008381526020019081526020016000208190555060096000858152602001908152602001600020600090556008805480612a5c57612a5b61475a565b5b6001900381819060005260206000200160009055905550505050565b6000612a83836111e2565b905081600660008573ffffffffffffffffffffffffffffffffffffffff1673ffffffffffffffffffffffffffffffffffffffff168152602001908152602001600020600083815260200190815260200160002081905550806007600084815260200190815260200160002081905550505050565b600080600090507a184f03e93ff9f4daa797ed6e38ed64bf6a1f0100000000000000008310612b55577a184f03e93ff9f4daa797ed6e38ed64bf6a1f0100000000000000008381612b4b57612b4a6146f7565b5b0492506040810190505b6d04ee2d6d415b85acef81000000008310612b92576d04ee2d6d415b85acef81000000008381612b8857612b876146f7565b5b0492506020810190505b662386f26fc100008310612bc157662386f26fc100008381612bb757612bb66146f7565b5b0492506010810190505b6305f5e1008310612bea576305f5e1008381612be057612bdf6146f7565b5b0492506008810190505b6127108310612c0f576127108381612c0557612c046146f7565b5b0492506004810190505b60648310612c325760648381612c2857612c276146f7565b5b0492506002810190505b600a8310612c41576001810190505b80915050919050565b6000604051905090565b600080fd5b600080fd5b60007fffffffff0000000000000000000000000000000000000000000000000000000082169050919050565b612c9381612c5e565b8114612c9e57600080fd5b50565b600081359050612cb081612c8a565b92915050565b600060208284031215612ccc57612ccb612c54565b5b6000612cda84828501612ca1565b91505092915050565b60008115159050919050565b612cf881612ce3565b82525050565b6000602082019050612d136000830184612cef565b92915050565b600081519050919050565b600082825260208201905092915050565b60005b83811015612d53578082015181840152602081019050612d38565b60008484015250505050565b6000601f19601f8301169050919050565b6000612d7b82612d19565b612d858185612d24565b9350612d95818560208601612d35565b612d9e81612d5f565b840191505092915050565b60006020820190508181036000830152612dc38184612d70565b905092915050565b6000819050919050565b612dde81612dcb565b8114612de957600080fd5b50565b600081359050612dfb81612dd5565b92915050565b600060208284031215612e1757612e16612c54565b5b6000612e2584828501612dec565b91505092915050565b600073ffffffffffffffffffffffffffffffffffffffff82169050919050565b6000612e5982612e2e565b9050919050565b612e6981612e4e565b82525050565b6000602082019050612e846000830184612e60565b92915050565b612e9381612e4e565b8114612e9e57600080fd5b50565b600081359050612eb081612e8a565b92915050565b60008060408385031215612ecd57612ecc612c54565b5b6000612edb85828601612ea1565b9250506020612eec85828601612dec565b9150509250929050565b60008060408385031215612f0d57612f0c612c54565b5b6000612f1b85828601612dec565b9250506020612f2c85828601612dec565b9150509250929050565b600060208284031215612f4c57612f4b612c54565b5b6000612f5a84828501612ea1565b91505092915050565b600081519050919050565b600082825260208201905092915050565b6000819050602082019050919050565b612f9881612dcb565b82525050565b6000612faa8383612f8f565b60208301905092915050565b6000602082019050919050565b6000612fce82612f63565b612fd88185612f6e565b9350612fe383612f7f565b8060005b83811015613014578151612ffb8882612f9e565b975061300683612fb6565b925050600181019050612fe7565b5085935050505092915050565b6000602082019050818103600083015261303b8184612fc3565b905092915050565b61304c81612dcb565b82525050565b60006020820190506130676000830184613043565b92915050565b60008060006060848603121561308657613085612c54565b5b600061309486828701612ea1565b93505060206130a586828701612ea1565b92505060406130b686828701612dec565b9150509250925092565b600080fd5b600080fd5b7f4e487b7100000000000000000000000000000000000000000000000000000000600052604160045260246000fd5b61310282612d5f565b810181811067ffffffffffffffff82111715613121576131206130ca565b5b80604052505050565b6000613134612c4a565b905061314082826130f9565b919050565b600067ffffffffffffffff8211156131605761315f6130ca565b5b61316982612d5f565b9050602081019050919050565b82818337600083830152505050565b600061319861319384613145565b61312a565b9050828152602081018484840111156131b4576131b36130c5565b5b6131bf848285613176565b509392505050565b600082601f8301126131dc576131db6130c0565b5b81356131ec848260208601613185565b91505092915050565b60006020828403121561320b5761320a612c54565b5b600082013567ffffffffffffffff81111561322957613228612c59565b5b613235848285016131c7565b91505092915050565b61324781612ce3565b811461325257600080fd5b50565b6000813590506132648161323e565b92915050565b6000806040838503121561328157613280612c54565b5b600061328f85828601612ea1565b92505060206132a085828601613255565b9150509250929050565b600067ffffffffffffffff8211156132c5576132c46130ca565b5b6132ce82612d5f565b9050602081019050919050565b60006132ee6132e9846132aa565b61312a565b90508281526020810184848401111561330a576133096130c5565b5b613315848285613176565b509392505050565b600082601f830112613332576133316130c0565b5b81356133428482602086016132db565b91505092915050565b6000806000806080858703121561336557613364612c54565b5b600061337387828801612ea1565b945050602061338487828801612ea1565b935050604061339587828801612dec565b925050606085013567ffffffffffffffff8111156133b6576133b5612c59565b5b6133c28782880161331d565b91505092959194509250565b6000819050919050565b60006133f36133ee6133e984612e2e565b6133ce565b612e2e565b9050919050565b6000613405826133d8565b9050919050565b6000613417826133fa565b9050919050565b6134278161340c565b82525050565b6000602082019050613442600083018461341e565b92915050565b6000806040838503121561345f5761345e612c54565b5b600061346d85828601612ea1565b925050602061347e85828601612ea1565b9150509250929050565b7f4e487b7100000000000000000000000000000000000000000000000000000000600052602260045260246000fd5b600060028204905060018216806134cf57607f821691505b6020821081036134e2576134e1613488565b5b50919050565b7f4552433732313a20617070726f76616c20746f2063757272656e74206f776e6560008201527f7200000000000000000000000000000000000000000000000000000000000000602082015250565b6000613544602183612d24565b915061354f826134e8565b604082019050919050565b6000602082019050818103600083015261357381613537565b9050919050565b7f4552433732313a20617070726f76652063616c6c6572206973206e6f7420746f60008201527f6b656e206f776e6572206f7220617070726f76656420666f7220616c6c000000602082015250565b60006135d6603d83612d24565b91506135e18261357a565b604082019050919050565b60006020820190508181036000830152613605816135c9565b9050919050565b60008151905061361b81612e8a565b92915050565b60006020828403121561363757613636612c54565b5b60006136458482850161360c565b91505092915050565b7f596f7520646f6e2774206f776e207468697320746f6b656e0000000000000000600082015250565b6000613684601883612d24565b915061368f8261364e565b602082019050919050565b600060208201905081810360008301526136b381613677565b9050919050565b7f546f6b656e496420646f6573206e6f7420657869737400000000000000000000600082015250565b60006136f0601683612d24565b91506136fb826136ba565b602082019050919050565b6000602082019050818103600083015261371f816136e3565b9050919050565b60008151905061373581612dd5565b92915050565b60006020828403121561375157613750612c54565b5b600061375f84828501613726565b91505092915050565b7f696e73756666696369656e742062616c616e6365206f66204e43540000000000600082015250565b600061379e601b83612d24565b91506137a982613768565b602082019050919050565b600060208201905081810360008301526137cd81613791565b9050919050565b60006060820190506137e96000830186612e60565b6137f66020830185612e60565b6138036040830184613043565b949350505050565b60008151905061381a8161323e565b92915050565b60006020828403121561383657613835612c54565b5b60006138448482850161380b565b91505092915050565b7f7472616e73666572206661696c65640000000000000000000000000000000000600082015250565b6000613883600f83612d24565b915061388e8261384d565b602082019050919050565b600060208201905081810360008301526138b281613876565b9050919050565b600067ffffffffffffffff8211156138d4576138d36130ca565b5b602082029050602081019050919050565b600080fd5b60006138fd6138f8846138b9565b61312a565b905080838252602082019050602084028301858111156139205761391f6138e5565b5b835b818110156139495780613935888261360c565b845260208401935050602081019050613922565b5050509392505050565b600082601f830112613968576139676130c0565b5b81516139788482602086016138ea565b91505092915050565b600067ffffffffffffffff82111561399c5761399b6130ca565b5b602082029050602081019050919050565b60006139c06139bb84613981565b61312a565b905080838252602082019050602084028301858111156139e3576139e26138e5565b5b835b81811015613a0c57806139f88882613726565b8452602084019350506020810190506139e5565b5050509392505050565b600082601f830112613a2b57613a2a6130c0565b5b8151613a3b8482602086016139ad565b91505092915050565b60008060408385031215613a5b57613a5a612c54565b5b600083015167ffffffffffffffff811115613a7957613a78612c59565b5b613a8585828601613953565b925050602083015167ffffffffffffffff811115613aa657613aa5612c59565b5b613ab285828601613a16565b9150509250929050565b7f4e487b7100000000000000000000000000000000000000000000000000000000600052603260045260246000fd5b7f4e487b7100000000000000000000000000000000000000000000000000000000600052601160045260246000fd5b6000613b2582612dcb565b9150613b3083612dcb565b9250828201905080821115613b4857613b47613aeb565b5b92915050565b6000613b5982612dcb565b91507fffffffffffffffffffffffffffffffffffffffffffffffffffffffffffffffff8203613b8b57613b8a613aeb565b5b600182019050919050565b7f496e73756666696369656e742062616c616e6365000000000000000000000000600082015250565b6000613bcc601483612d24565b9150613bd782613b96565b602082019050919050565b60006020820190508181036000830152613bfb81613bbf565b9050919050565b7f4552433732313a2063616c6c6572206973206e6f7420746f6b656e206f776e6560008201527f72206f7220617070726f76656400000000000000000000000000000000000000602082015250565b6000613c5e602d83612d24565b9150613c6982613c02565b604082019050919050565b60006020820190508181036000830152613c8d81613c51565b9050919050565b7f455243373231456e756d657261626c653a206f776e657220696e646578206f7560008201527f74206f6620626f756e6473000000000000000000000000000000000000000000602082015250565b6000613cf0602b83612d24565b9150613cfb82613c94565b604082019050919050565b60006020820190508181036000830152613d1f81613ce3565b9050919050565b7f455243373231456e756d657261626c653a20676c6f62616c20696e646578206f60008201527f7574206f6620626f756e64730000000000000000000000000000000000000000602082015250565b6000613d82602c83612d24565b9150613d8d82613d26565b604082019050919050565b60006020820190508181036000830152613db181613d75565b9050919050565b60008190508160005260206000209050919050565b60006020601f8301049050919050565b600082821b905092915050565b600060088302613e1a7fffffffffffffffffffffffffffffffffffffffffffffffffffffffffffffffff82613ddd565b613e248683613ddd565b95508019841693508086168417925050509392505050565b6000613e57613e52613e4d84612dcb565b6133ce565b612dcb565b9050919050565b6000819050919050565b613e7183613e3c565b613e85613e7d82613e5e565b848454613dea565b825550505050565b600090565b613e9a613e8d565b613ea5818484613e68565b505050565b5b81811015613ec957613ebe600082613e92565b600181019050613eab565b5050565b601f821115613f0e57613edf81613db8565b613ee884613dcd565b81016020851015613ef7578190505b613f0b613f0385613dcd565b830182613eaa565b50505b505050565b600082821c905092915050565b6000613f3160001984600802613f13565b1980831691505092915050565b6000613f4a8383613f20565b9150826002028217905092915050565b613f6382612d19565b67ffffffffffffffff811115613f7c57613f7b6130ca565b5b613f8682546134b7565b613f91828285613ecd565b600060209050601f831160018114613fc45760008415613fb2578287015190505b613fbc8582613f3e565b865550614024565b601f198416613fd286613db8565b60005b82811015613ffa57848901518255600182019150602085019450602081019050613fd5565b868310156140175784890151614013601f891682613f20565b8355505b6001600288020188555050505b505050505050565b7f4552433732313a20696e76616c696420746f6b656e2049440000000000000000600082015250565b6000614062601883612d24565b915061406d8261402c565b602082019050919050565b6000602082019050818103600083015261409181614055565b9050919050565b7f4552433732313a2061646472657373207a65726f206973206e6f74206120766160008201527f6c6964206f776e65720000000000000000000000000000000000000000000000602082015250565b60006140f4602983612d24565b91506140ff82614098565b604082019050919050565b60006020820190508181036000830152614123816140e7565b9050919050565b7f4f776e61626c653a206e6577206f776e657220697320746865207a65726f206160008201527f6464726573730000000000000000000000000000000000000000000000000000602082015250565b6000614186602683612d24565b91506141918261412a565b604082019050919050565b600060208201905081810360008301526141b581614179565b9050919050565b7f4552433732313a207472616e736665722066726f6d20696e636f72726563742060008201527f6f776e6572000000000000000000000000000000000000000000000000000000602082015250565b6000614218602583612d24565b9150614223826141bc565b604082019050919050565b600060208201905081810360008301526142478161420b565b9050919050565b7f4552433732313a207472616e7366657220746f20746865207a65726f2061646460008201527f7265737300000000000000000000000000000000000000000000000000000000602082015250565b60006142aa602483612d24565b91506142b58261424e565b604082019050919050565b600060208201905081810360008301526142d98161429d565b9050919050565b7f4f776e61626c653a2063616c6c6572206973206e6f7420746865206f776e6572600082015250565b6000614316602083612d24565b9150614321826142e0565b602082019050919050565b6000602082019050818103600083015261434581614309565b9050919050565b7f4552433732313a20617070726f766520746f2063616c6c657200000000000000600082015250565b6000614382601983612d24565b915061438d8261434c565b602082019050919050565b600060208201905081810360008301526143b181614375565b9050919050565b7f4552433732313a207472616e7366657220746f206e6f6e20455243373231526560008201527f63656976657220696d706c656d656e7465720000000000000000000000000000602082015250565b6000614414603283612d24565b915061441f826143b8565b604082019050919050565b6000602082019050818103600083015261444381614407565b9050919050565b600081905092915050565b600061446082612d19565b61446a818561444a565b935061447a818560208601612d35565b80840191505092915050565b60006144928285614455565b915061449e8284614455565b91508190509392505050565b600081519050919050565b600082825260208201905092915050565b60006144d1826144aa565b6144db81856144b5565b93506144eb818560208601612d35565b6144f481612d5f565b840191505092915050565b60006080820190506145146000830187612e60565b6145216020830186612e60565b61452e6040830185613043565b818103606083015261454081846144c6565b905095945050505050565b60008151905061455a81612c8a565b92915050565b60006020828403121561457657614575612c54565b5b60006145848482850161454b565b91505092915050565b7f4552433732313a206d696e7420746f20746865207a65726f2061646472657373600082015250565b60006145c3602083612d24565b91506145ce8261458d565b602082019050919050565b600060208201905081810360008301526145f2816145b6565b9050919050565b7f4552433732313a20746f6b656e20616c7265616479206d696e74656400000000600082015250565b600061462f601c83612d24565b915061463a826145f9565b602082019050919050565b6000602082019050818103600083015261465e81614622565b9050919050565b7f455243373231456e756d657261626c653a20636f6e736563757469766520747260008201527f616e7366657273206e6f7420737570706f727465640000000000000000000000602082015250565b60006146c1603583612d24565b91506146cc82614665565b604082019050919050565b600060208201905081810360008301526146f0816146b4565b9050919050565b7f4e487b7100000000000000000000000000000000000000000000000000000000600052601260045260246000fd5b600061473182612dcb565b915061473c83612dcb565b925082820390508181111561475457614753613aeb565b5b92915050565b7f4e487b7100000000000000000000000000000000000000000000000000000000600052603160045260246000fdfea2646970667358221220c7579555471b6be48f8bd2a1c7f88251a627aee6275069d71c878248312bf56064736f6c6343000812003368747470733a2f2f697066732e696f2f697066732f516d5a64374b5053686a33344761717a554e534c566757463741596b766752646b7477686f464635754a314651722f",
  "linkReferences": {},
  "deployedLinkReferences": {}
}